:10000000AEC100000C941E210C9449210C94742163
:100010000C949F210C94CA210C94F5210C9420225D
:100020000C944B22CDC10000CBC10000C9C100001F
:10003000C7C100000C94B129C3C10000C1C10000B8
:10004000BFC10000BDC10000BBC10000B9C10000BC
:10005000B7C10000B5C10000B3C100000C94762206
:10006000AFC100000C9448260C947E26A9C1000064
:10007000A7C10000A5C10000A3C10000A1C10000EC
:100080009FC100009DC100009BC1000099C10000FC
:100090000C94D4260C940A2793C1000091C100004F
:1000A0008FC100008DC100008BC1000089C100001C
:1000B00087C1000085C1000083C1000081C100002C
:1000C0007FC100007DC100000C94342A0C9460278D
:1000D0000C94962775C100000C94EC270C942228F0
:1000E0006FC10000CC23D123D623E023EA2363246D
:1000F000F423FC2304240E241824222431243B243A
:10010000632445244F24592487248A2479247D2478
:100110008324C1248E24922498249C24A024A624E1
:10012000AA24AE24C124B424B824BC24433201340C
:100130006B346E344533783302322332E63148343F
:10014000373444346E346E346E34D13100000A0BCF
:1001500002090C0D0E080703040100000000000056
:10016000000000000000000000000000000000008F
:10017000000000000000000012111000000000004C
:10018000000000000000000000000000000000006F
:10019000000001021020200808102040102040809C
:1001A000020102010804020101020408102040803B
:1001B00080402010080402018004020180402010C9
:1001C0000804020108040201010204081020408012
:1001D00001020408102040800505050507050808F0
:1001E0000808020202020A0A0808040404040101C1
:1001F00001010101010103030303030303030407D6
:1002000007070C0C0C0C0C0C0C0C0202020206066C
:100210000606060606060B0B0B0B0B0B0B0B000062
:100220002200250028002B002E003100340002019E
:100230000000050108010B01000021002400270037
:100240002A002D00300033000101000004010701E5
:100250000A0102001D3A2774694E53E8F5D2CF9C7B
:1002600081A6BBCDD0F7EAB9A4839E25381F0251E1
:100270004C6B76879ABDA0F3EEC9D46F7255481BBC
:1002800006213C4A57706D3E230419A2BF9885D6BB
:10029000CBECF1130E2934677A5D40FBE6C1DC8FAD
:1002A00092B5A8DEC3E4F9AAB7908D362B0C1142A3
:1002B0005F78659489AEB3E0FDDAC77C61465B0880
:1002C00015322F5944637E2D30170AB1AC8B96C579
:1002D000D8FFE2263B1C01524F6875CED3F4E9BA31
:1002E000A7809DEBF6D1CC9F82A5B8031E39247759
:1002F0006A4D50A1BC9B86D5C8EFF24954736E3D40
:1003000020071A6C71564B1805223F8499BEA3F042
:10031000EDCAD735280F12415C7B66DDC0E7FAA92C
:10032000B4938EF8E5C2DF8C91B6AB100D2A37641A
:10033000795E43B2AF8895C6DBFCE15A47607D2EFB
:100340003314097F6245580B16312C978AADB0E300
:10035000FED9C400A7263327BF274B28B72811246E
:100360001FBECFEFD1E2DEBFCDBF00E00CBF16E075
:10037000A0E0B2E0E0EEF4E700E00BBF02C00790BF
:100380000D92AE38B107D9F72CE0AEE8B6E001C067
:100390001D92A133B207E1F711E0CFEAD1E000E00E
:1003A00006C021970109802FFE010E94E338CA3A56
:1003B000D10780E00807A9F70E94F8350C946E3A3F
:1003C0001FCE1F93CF93DF931F92CDB7DEB7162FAB
:1003D00061E0812F79830E94C224812F7981972F38
:1003E0000F90DF91CF911F9108950895CF93C82F5B
:1003F000CB01BA010E9464378C2FCF910C94A523B6
:10040000CF92DF92EF92FF926B017C0186E3C816D8
:10041000D104E104F10428F486E3C80ED11CE11CE8
:10042000F11C60E08C2D0E94C224C601FF90EF9069
:10043000DF90CF9008950895CF93DF93EB010E9452
:10044000802399838883DF91CF9108950895FC01DB
:1004500081819281A381B4810197A105B10549F4FD
:100460008581882331F040E050E0BA018689978980
:10047000BDCF08952F923F924F925F926F927F92DD
:100480008F929F92AF92BF92CF92DF92EF92FF92A4
:100490000F931F93CF93DF93CDB7DEB7C855D10924
:1004A0000FB6F894DEBF0FBECDBF80917E0B082E35
:1004B000000C990B0197029710F483E001C080E0D3
:1004C00080937E0B80917D0B082E000C990B019779
:1004D000029710F483E001C080E080937D0B80914F
:1004E0007C0B082E000C990B0197029710F483E007
:1004F00001C080E080937C0B80917B0B082E000C68
:10050000990B0197029710F483E001C080E080937B
:100510007B0B80917A0B082E000C990B01970297A8
:1005200010F483E001C080E080937A0B8091790B16
:10053000082E000C990B0197029710F483E001C07C
:1005400080E08093790B8091780B082E000C990B3A
:100550000197029710F483E001C080E08093780B4C
:100560008091770B082E000C990B0197029710F4DD
:1005700083E001C080E08093770B8091760B082E9A
:10058000000C990B0197029710F483E001C080E002
:100590008093760BC090AE03D090AF03E090B00391
:1005A000F090B103A70196016091A00A7091A10A91
:1005B0008091A20A9091A30A0E94F836882341F004
:1005C000C092A00AD092A10AE092A20AF092A30AD5
:1005D00080919E0A90919F0A39DF43E050E0BE016E
:1005E000675F7F4F80919E0A90919F0A25DF098562
:1005F0001A859801D8010E94EB380E949537209106
:100600008A0330918B0340918C0350918D030E949B
:100610004B38209192033091930340919403509171
:1006200095030E9494366B017C01B80180E090E054
:100630000E94953720918E0330918F034091900353
:10064000509191030E944B389B01AC01C701B60148
:100650000E9494362091D2033091D3034091D40369
:100660005091D5030E944B3860931C0A70931D0A69
:1006700080931E0A90931F0AC090AA03D090AB03E8
:10068000E090AC03F090AD03A70196016091BC0A25
:100690007091BD0A8091BE0A9091BF0A0E94F836FF
:1006A000882341F0C092BC0AD092BD0AE092BE0AF3
:1006B000F092BF0A8091BA0A9091BB0AC7DE43E06C
:1006C00050E0BE01675F7F4F8091BA0A9091BB0AEC
:1006D000B3DE09851A859801D8010E94EB380E9483
:1006E000953720919603309197034091980350914C
:1006F00099030E944B3820919E0330919F034091B3
:10070000A0035091A1030E9494366B017C01B801B3
:1007100080E090E00E94953720919A0330919B03EE
:1007200040919C0350919D030E944B389B01AC016A
:10073000C701B6010E9494362091D6033091D703A9
:100740004091D8035091D9030E944B386B877C8726
:100750008D879E876093200A7093210A8093220AD6
:100760009093230AC090DA03D090DB03E090DC037F
:10077000F090DD039B01AC01C701B6010E944B382C
:100780006F8B788F898F9A8F6093240A7093250AD4
:100790008093260A9093270A20911C0A30911D0A03
:1007A00040911E0A50911F0A2B8B3C8B4D8B5E8B08
:1007B000C701B6010E944B386B8F7C8F8D8F9E8F47
:1007C0006093280A7093290A80932A0A90932B0A2F
:1007D000E091230CF091240C408051806280738062
:1007E00020906A0B30906B0BC090680BD090690B17
:1007F0000091740B1091750BD6012D913D914D9187
:100800005C91C301B2010E94F83618160CF045C085
:10081000F60124A135A146A157A1C301B2010E944E
:10082000473887FF3DC05801AA0CBB1CAA0CBB1C53
:10083000AC0CBD1CD5012D913D914D915C91C30136
:10084000B2010E94F836E12CF12C87FF13C0B4E00E
:10085000EB1AF108F501EE0DFF1D2481358146816B
:100860005781C301B2010E94F83687FF1BC00150B7
:100870001109EDCFE4E0EE0EF11CF501EE0DFF1DC8
:100880002081318142815381C301B2010E944738E6
:1008900087FD08C00F5F1F4FEDCF00E010E002C0E2
:1008A00008E010E01093750B0093740B000F111FFC
:1008B000000F111FF601E00FF11F80809180A280D0
:1008C000B38098012C5F3F4F388B2F87F901EC0DD7
:1008D000FD1DC080D180E280F380A7019601C50193
:1008E000B4010E94F83681112EC0A5019401C30104
:1008F000B2010E94F836F101E00FF11F87FD12C02E
:10090000AF85B889A20DB31D8D919D910D90BC91BD
:10091000A02D89839A83AB83BC8384A595A5A6A5C6
:10092000B7A50CC080819181A281B38189839A830C
:10093000AB83BC8380A591A5A2A5B3A58D839E831F
:10094000AF83B8877AC0A3019201C701B6010E94A4
:1009500093366F8F78A389A39AA3A5019401C70149
:10096000B6010E9493369B01AC016F8D78A189A1DD
:100970009AA10E94FC366F8F78A389A39AA39B014A
:10098000AC0160E070E080E89FE30E9493366BA3C7
:100990007CA38DA39EA3AE014F5F5F4F58A74FA3CB
:1009A000C101805B9F4F9CA78BA7F101E00FF11F56
:1009B00080809180B280A380EF85F889E20DF31DDD
:1009C000C080D180E280F380A7019601B4018B2D15
:1009D0009A2D0E94F8368823D1F094014B2D5A2D80
:1009E0006F8D78A189A19AA10E944B384B015C01BF
:1009F000A70196016BA17CA18DA19EA10E944B38FD
:100A00009B01AC01C501B4010E94943605C0C4012C
:100A1000AB2DBA2DBC01CD01AFA1B8A56D937D93CF
:100A20008D939D93B8A7AFA3B8E22B0E311CEBA515
:100A3000FCA52E163F0609F0B8CF2091DE033091B9
:100A4000DF034091E0035091E103C301B2010E9432
:100A5000F83687FF09C0C090E203D090E303E0902E
:100A6000E403F090E50308C0C090E603D090E703EC
:100A7000E090E803F090E9032D813E814F81588595
:100A800069817A818B819C810E949436A7019601AD
:100A90000E9494362091EA033091EB034091EC03DD
:100AA0005091ED030E944B386B017C012091EE03C5
:100AB0003091EF034091F0035091F103C301B20173
:100AC0000E94F83687FF09C06091F2037091F3032A
:100AD0008091F4039091F50308C06091F603709142
:100AE000F7038091F8039091F9032091FA03309174
:100AF000FB034091FC035091FD030E944B386BA314
:100B00007CA38DA39EA34090FE035090FF036090B2
:100B1000000470900104A7019601C301B2010E9474
:100B20004B384B015C0160932C0A70932D0A809323
:100B30002E0A90932F0A2BA13CA14DA15EA1C301C7
:100B4000B2010E944B386093300A7093310A80934F
:100B5000320A9093330A2F89388D498D5A8D20930C
:100B6000340A3093350A4093360A5093370A8092FC
:100B70003C0A90923D0AA0923E0AB0923F0A2B8D09
:100B80003C8D4D8D5E8D2093380A3093390A409309
:100B90003A0A50933B0A6093400A7093410A80934B
:100BA000420A9093430A2091020430910304409139
:100BB0000404509105046B857C858D859E850E947B
:100BC0004B386B8F7C8F8D8F9E8F20910E043091D0
:100BD0000F0440911004509111046B857C858D8524
:100BE0009E850E944B386F8F78A389A39AA320918A
:100BF00012043091130440911404509115046B8930
:100C00007C898D899E890E944B386FA378A789A71C
:100C10009AA72B853C854D855E85C701B6010E944C
:100C200093366F87788B898B9A8B6093440A709385
:100C3000450A8093460A9093470A2091200B3091F1
:100C4000210B4091220B5091230B6F8D78A189A12C
:100C50009AA10E9493369B01AC01609106047091A9
:100C6000070480910804909109040E9493366F8BC9
:100C7000788F898F9A8F6093480A7093490A80937E
:100C80004A0A90934B0A2B893C894D895E896BA156
:100C90007CA18DA19EA10E9493366B8B7C8B8D8B4A
:100CA0009E8B60934C0A70934D0A80934E0A9093EA
:100CB0004F0A2091240B3091250B4091260B509127
:100CC000270B6FA178A589A59AA50E9493369B0151
:100CD000AC0160910A0470910B0480910C04909116
:100CE0000D040E9493366B017C016093500A70934F
:100CF000510A8093520A9093530A8091F40A90917A
:100D0000F50AA091F60AB091F70A8BA39CA3ADA3B4
:100D1000BEA32091F00A3091F10A4091F20A50915D
:100D2000F30A2BA73CA74DA75EA78091F80A9091E4
:100D3000F90AA091FA0AB091FB0A89AB9AABABAB66
:100D4000BCAB2091FC0A3091FD0A4091FE0A509103
:100D5000FF0A2DAB3EAB4FAB58AF8091040B909187
:100D6000050BA091060BB091070B89AF9AAFABAF03
:100D7000BCAF2091000B3091010B4091020B5091C0
:100D8000030B21962CAF3DAF4EAF5FAF2197809103
:100D9000080B9091090BA0910A0BB0910B0B2596B3
:100DA0008CAF9DAFAEAFBFAF259720910C0B3091AC
:100DB0000D0B40910E0B50910F0B29962CAF3DAFB0
:100DC0004EAF5FAF29978091140B9091150BA091B6
:100DD000160BB091170B2D968CAF9DAFAEAFBFAF7A
:100DE0002D972091100B3091110B4091120B5091C7
:100DF000130B61962CAF3DAF4EAF5FAF6197809103
:100E0000180B9091190BA0911A0BB0911B0B6596C2
:100E10008CAF9DAFAEAFBFAF659720911C0B3091EB
:100E20001D0B40911E0B50911F0B69962CAF3DAFCF
:100E30004EAF5FAF69970AE013E01C861B864B85B7
:100E40005C85445F554F1A01CA01885B9F4F98AB80
:100E50008FA7F801EC5EFE4F2081318142815381E2
:100E60006BA17CA18DA19EA10E944B384B015C011E
:100E7000F801E45FFE4F20813181428153816BA5EF
:100E80007CA58DA59EA50E944B389B01AC01C50198
:100E9000B4010E9494364B015C01F801E45EFE4F00
:100EA000208131814281538169A97AA98BA99CA9AA
:100EB0000E944B389B01AC01C501B4010E949436DD
:100EC0004B015C01F801EC5DFE4F208131814281D4
:100ED00053816DA97EA98FA998AD0E944B389B01C3
:100EE000AC01C501B4010E9494364B015C01D801EC
:100EF00090962D913D914D915C9193976F85788956
:100F000089899A890E944B3820E030E0A9010E942B
:100F100094362B013C01F80120A531A542A553A52B
:100F20006F89788D898D9A8D0E944B389B01AC0119
:100F3000C301B2010E9494362B013C01D801D09626
:100F40002D913D914D915C91D3976B897C898D89D1
:100F50009E890E944B389B01AC01C301B2010E94E3
:100F600094362B013C01F80120AD31AD42AD53ADBB
:100F7000C701B6010E944B389B01AC01C301B2010D
:100F80000E9494369B01AC01C501B4010E949436C5
:100F9000AFA5B8A96D937D938D939C931397F101A1
:100FA000E05BFF4FF8ABEFA7F801EC5CFE4F208150
:100FB00031814281538169AD7AAD8BAD9CAD0E9488
:100FC0004B384B015C01F801E45DFE4F208131811B
:100FD0004281538121966CAD7DAD8EAD9FAD219741
:100FE0000E944B389B01AC01C501B4010E949436AC
:100FF0004B015C01F801E45CFE4F208131814281AC
:10100000538125966CAD7DAD8EAD9FAD25970E9429
:101010004B389B01AC01C501B4010E9494364B01D1
:101020005C01F801EC5BFE4F2081318142815381EC
:1010300029966CAD7DAD8EAD9FAD29970E944B3842
:101040009B01AC01C501B4010E9494364B015C01C7
:10105000D8012D913D914D915C916F857889898959
:101060009A890E944B3820E030E0A9010E94943612
:101070002B013C01F80120853185428553856F891C
:10108000788D898D9A8D0E944B389B01AC01C301EC
:10109000B2010E9494362B013C01D80150962D914B
:1010A0003D914D915C9153976B897C898D899E8987
:1010B0000E944B389B01AC01C301B2010E949436DF
:1010C0002B013C01F801208D318D428D538DC701DC
:1010D000B6010E944B389B01AC01C301B2010E94D2
:1010E00094369B01AC01C501B4010E949436AFA5B2
:1010F000B8A96D937D938D939C931397B8E52B0EB0
:10110000311CF801EC5AFE4F20813181428153811C
:101110002D966CAD7DAD8EAD9FAD2D970E944B3859
:101120004B015C01F801E45BFE4F2081318142817B
:10113000538161966CAD7DAD8EAD9FAD61970E9480
:101140004B389B01AC01C501B4010E9494364B01A0
:101150005C01F801E45AFE4F2081318142815381C4
:1011600065966CAD7DAD8EAD9FAD65970E944B3899
:101170009B01AC01C501B4010E9494364B015C0196
:10118000F801EC59FE4F20813181428153816996EB
:101190006CAD7DAD8EAD9FAD69970E944B389B01C4
:1011A000AC01C501B4010E9494364B015C01F80109
:1011B000E05AFF4F20813181428153816F857889C8
:1011C00089899A890E944B3820E030E0A9010E9469
:1011D00094362B013C01F801E859FF4F2081318101
:1011E000428153816F89788D898D9A8D0E944B3809
:1011F0009B01AC01C301B2010E9494362B013C015A
:10120000F801E059FF4F20813181428153816B8980
:101210007C898D899E890E944B389B01AC01C3015A
:10122000B2010E9494362B013C01F801E858FF4FAF
:101230002081318142815381C701B6010E944B3820
:101240009B01AC01C301B2010E9494369B01AC0129
:10125000C501B4010E949436F101608371838283D9
:1012600093832B853C852C5F3F4F3C872B870C5FFE
:101270001F4F2830310509F0E2CD20E030E040EF8B
:1012800052E46B8D7C8D8D8D9E8D0E94F83687FF8C
:1012900032C08091640A9091650AA091660AB0916B
:1012A000670A80936C0A90936D0AA0936E0AB093BC
:1012B0006F0A8091680A9091690AA0916A0AB091B8
:1012C0006B0A8093700A9093710AA093720AB0938C
:1012D000730A8091780B082E000C990B009731F05F
:1012E0008330910529F481E090E002C082E090E033
:1012F0008093780B6FC020E030E04CE053E46B8DBE
:101300007C8D8D8D9E8D0E94F83687FF32C0809136
:101310005C0A90915D0AA0915E0AB0915F0A809389
:101320006C0A90936D0AA0936E0AB0936F0A809135
:10133000600A9091610AA091620AB091630A809359
:10134000700A9093710AA093720AB093730A809105
:10135000770B082E000C990B009731F08330910524
:1013600029F481E090E002C082E090E08093770B66
:1013700031C08091540A9091550AA091560AB091BB
:10138000570A80936C0A90936D0AA0936E0AB093EB
:101390006F0A8091580A9091590AA0915A0AB09107
:1013A0005B0A8093700A9093710AA093720AB093BB
:1013B000730A8091760B082E000C990B009731F080
:1013C0008330910529F481E090E002C082E090E052
:1013D0008093760B80906C0A90906D0AA0906E0AB4
:1013E000B0906F0A4090700A5090710A6090720A33
:1013F0007090730AA3019201C501B4010E94943652
:1014000020917604309177044091780450917904CA
:101410000E944B387B018C0120907A0430907B0431
:10142000C0907C04D0907D049101A6010E944738B1
:10143000181684F020907E0430907F04C0908004C1
:10144000D09081049101A601B701C8010E94F8362D
:1014500087FF02C0710186012091820430918304CC
:101460004091840450918504B701C8010E944B3813
:101470009B01AC016093740A7093750A8093760A9D
:101480009093770A60918604709187048091880414
:10149000909189040E944B386093780A7093790A7E
:1014A00080937A0A90937B0AA3019201C501B4014B
:1014B0000E94933620918A0430918B0440918C04D1
:1014C00050918D040E944B387B018C01A0908E04BA
:1014D000B0908F04C0909004D09091049501A60123
:1014E0000E944738181684F0A0909204B09093049C
:1014F000C0909404D09095049501A601B701C8014D
:101500000E94F83687FF02C075018601209196047B
:10151000309197044091980450919904B701C80103
:101520000E944B386B017C019B01AC0160919A04D5
:1015300070919B0480919C0490919D040E944B3873
:1015400060937C0A70937D0A80937E0A90937F0A51
:1015500020E030E04FE753E4C701B6010E94F836BF
:1015600087FF0DC020E030E0A901C701B6010E944D
:101570004738181654F0C12CD12C760106C0C12C66
:10158000D12C9FE7E92E93E4F92EB701A6018091B3
:10159000D60A9091D70A0E94F601C090740AD090A2
:1015A000750AE090760AF090770A20E030E04FE785
:1015B00053E4C701B6010E94F83687FF0DC020E052
:1015C00030E0A901C701B6010E944738181654F04F
:1015D000C12CD12C760106C0C12CD12C8FE7E82E6E
:1015E00083E4F82EB701A6018091EE0A9091EF0AEC
:1015F0000E94F60110920C0A10920D0A10920E0A27
:1016000010920F0A1092100A1092110A1092120AE8
:101610001092130A1092140A1092150A1092160AC8
:101620001092170A1092180A1092190A10921A0AA8
:1016300010921B0A80917E0B082E000C990B0097CC
:1016400031F08330910529F481E090E002C082E01E
:1016500090E080937E0BC090840AD090850AE09041
:10166000860AF090870A20E030E040EF52E4C7019C
:10167000B6010E94F83687FF12C080917C0B082EBD
:10168000000C990B009731F08330910529F481E02B
:1016900090E002C082E090E080937C0B19C0C09281
:1016A000800AD092810AE092820AF092830A8091A5
:1016B0007B0B082E000C990B009731F083309105BD
:1016C00029F481E090E002C082E090E080937B0BFF
:1016D00020E030E04CE053E46091800A7091810A90
:1016E0008091820A9091830A0E94F83687FF12C087
:1016F00080917A0B082E000C990B009731F0833003
:10170000910529F481E090E002C082E090E08093AE
:101710007A0B11C08091790B082E000C990B009761
:1017200031F08330910529F481E090E002C082E03D
:1017300090E08093790B8F8D98A1A9A1BAA1809395
:10174000200B9093210BA093220BB093230B2FA17E
:1017500038A549A55AA52093240B3093250B409317
:10176000260B5093270B8090BA039090BB03A09058
:10177000BC03B090BD034090440A5090450A60906D
:10178000460A7090470AA3019201C501B4010E9464
:101790004B389B01AC016091F00A7091F10A809185
:1017A000F20A9091F30A0E9494366093F00A7093C3
:1017B000F10A8093F20A9093F30AC090C203D0908A
:1017C000C303E090C403F090C503A3019201C701D5
:1017D000B6010E944B389B01AC016091000B7091E7
:1017E000010B8091020B9091030B0E949436609341
:1017F000000B7093010B8093020B9093030B80916D
:10180000CA039091CB03A091CC03B091CD038B87F9
:101810009C87AD87BE87A3019201BC01CD010E94C8
:101820004B389B01AC016091100B7091110B8091B2
:10183000120B9091130B0E9494366093100B7093CF
:10184000110B8093120B9093130B20E030E0A90151
:1018500060919E0470919F048091A0049091A104D6
:101860000E944B386F87788B898B9A8B9B01AC01D8
:101870006091280B7091290B80912A0B90912B0B72
:101880000E9494366093280B7093290B80932A0B47
:1018900090932B0B20E030E0A9016091A604709199
:1018A000A7048091A8049091A9040E944B386F8BE3
:1018B000788F898F9A8F9B01AC016091380B709162
:1018C000390B80913A0B90913B0B0E9494366093B8
:1018D000380B7093390B80933A0B90933B0B20E0BD
:1018E00030E0A9016091AE047091AF048091B00422
:1018F0009091B1040E944B386B8B7C8B8D8B9E8BAF
:101900009B01AC016091480B7091490B80914A0B8F
:1019100090914B0B0E9494366093480B7093490B47
:1019200080934A0B90934B0B20E030E0A90160912B
:10193000B6047091B7048091B8049091B9040E94E4
:101940004B386B8F7C8F8D8F9E8F9B01AC0160918C
:10195000580B7091590B80915A0B90915B0B0E9420
:1019600094366093580B7093590B80935A0B909355
:101970005B0B4090480A5090490A60904A0A709068
:101980004B0AA3019201C501B4010E944B389B018F
:10199000AC016091F40A7091F50A8091F60A909179
:1019A000F70A0E9494366093F40A7093F50A8093C4
:1019B000F60A9093F70AA3019201C701B6010E94AB
:1019C0004B389B01AC016091040B7091050B809129
:1019D000060B9091070B0E9494366093040B709352
:1019E000050B8093060B9093070BA30192016B8567
:1019F0007C858D859E850E944B389B01AC01609152
:101A0000140B7091150B8091160B9091170B0E947F
:101A100094366093140B7093150B8093160B909370
:101A2000170B2F85388949895A8960912C0B709141
:101A30002D0B80912E0B90912F0B0E94943660936A
:101A40002C0B70932D0B80932E0B90932F0B2F89C3
:101A5000388D498D5A8D60913C0B70913D0B809172
:101A60003E0B90913F0B0E94943660933C0B709319
:101A70003D0B80933E0B90933F0B2B893C894D8906
:101A80005E8960914C0B70914D0B80914E0B909143
:101A90004F0B0E94943660934C0B70934D0B8093C8
:101AA0004E0B90934F0B2B8D3C8D4D8D5E8D609129
:101AB0005C0B70915D0B80915E0B90915F0B0E94AF
:101AC000943660935C0B70935D0B80935E0B9093E8
:101AD0005F0B40904C0A50904D0A60904E0A7090F7
:101AE0004F0AA3019201C501B4010E944B389B012A
:101AF000AC016091F80A7091F90A8091FA0A90910C
:101B0000FB0A0E9494366093F80A7093F90A809356
:101B1000FA0A9093FB0AA3019201C701B6010E9441
:101B20004B389B01AC016091080B7091090B8091BF
:101B30000A0B90910B0B0E9494366093080B7093E4
:101B4000090B80930A0B90930B0BA30192016B85F9
:101B50007C858D859E850E944B389B01AC016091F0
:101B6000180B7091190B80911A0B90911B0B0E940E
:101B700094366093180B7093190B80931A0B909303
:101B80001B0B2F85388949895A896091300B7091D8
:101B9000310B8091320B9091330B0E9494366093FD
:101BA000300B7093310B8093320B9093330B2F8952
:101BB000388D498D5A8D6091400B7091410B809109
:101BC000420B9091430B0E9494366093400B7093AC
:101BD000410B8093420B9093430B2B893C894D8999
:101BE0005E896091500B7091510B8091520B9091D6
:101BF000530B0E9494366093500B7093510B80935B
:101C0000520B9093530B2B8D3C8D4D8D5E8D6091BF
:101C1000600B7091610B8091620B9091630B0E943D
:101C200094366093600B7093610B8093620B90937A
:101C3000630B4090500A5090510A6090520A709085
:101C4000530AA3019201C501B4010E944B389B01C4
:101C5000AC016091FC0A7091FD0A8091FE0A90919E
:101C6000FF0A0E9494366093FC0A7093FD0A8093E9
:101C7000FE0A9093FF0AA3019201C701B6010E94D8
:101C80004B389B01AC0160910C0B70910D0B809156
:101C90000E0B90910F0B0E94943660930C0B709377
:101CA0000D0B80930E0B90930F0BA30192016B858C
:101CB0007C858D859E850E944B389B01AC0160918F
:101CC0001C0B70911D0B80911E0B90911F0B0E949D
:101CD000943660931C0B70931D0B80931E0B909396
:101CE0001F0B2F85388949895A896091340B70916F
:101CF000350B8091360B9091370B0E949436609390
:101D0000340B7093350B8093360B9093370B2F89E0
:101D1000388D498D5A8D6091440B7091450B80919F
:101D2000460B9091470B0E9494366093440B70933E
:101D3000450B8093460B9093470B2B893C894D892B
:101D40005E896091540B7091550B8091560B909168
:101D5000570B0E9494366093540B7093550B8093ED
:101D6000560B9093570B2B8D3C8D4D8D5E8D609156
:101D7000640B7091650B8091660B9091670B0E94CC
:101D800094366093640B7093650B8093660B90930D
:101D9000670B82E090E00E94CA20E091230CF09152
:101DA000240C408151816281738180E090E00E9427
:101DB000C6206091180C7091190C80911A0C9091AA
:101DC0001B0C0E9495372DEC3CEC4CEC5CE30E9424
:101DD0004B38AB01BC0181E090E00E94C6208090AE
:101DE0001C0C90901D0CA0901E0CB0901F0C20E0BD
:101DF00030E040E85FEBC501B4010E94F836009185
:101E0000230C1091240C882319F1D801CD90DD907A
:101E1000ED90FC90A7019601C501B4010E94933694
:101E20004B015C0120E030E040E054E3C701B60123
:101E30000E944B389B01AC01C501B4010E94473898
:101E4000181634F088E595E09093800B80937F0B13
:101E50008091220C882331F088E595E09093800BE7
:101E600080937F0B8091100C9091110CA091120C1B
:101E7000B091130CBC01CD016F5F7F4F8F4F9F4F0F
:101E80006093100C7093110C8093120C9093130CB0
:101E90000E9495372091140C3091150C4091160C2E
:101EA0005091170C0E944B38F80160837183828334
:101EB00093838091180C9091190CA0911A0CB091F9
:101EC0001B0C0196A11DB11D8093180C9093190C49
:101ED000A0931A0CB0931B0CC85ADF4F0FB6F8949E
:101EE000DEBF0FBECDBFDF91CF911F910F91FF904D
:101EF000EF90DF90CF90BF90AF909F908F907F90AA
:101F00006F905F904F903F902F9008952F923F9247
:101F10004F925F926F927F928F929F92AF92BF92F9
:101F2000CF92DF92EF92FF920F931F93CF93DF93A5
:101F3000CDB7DEB728970FB6F894DEBF0FBECDBF82
:101F4000EFE7FBE08EEADF011D928A95E9F780E278
:101F50009CE09783868343E25CE05093C00B409300
:101F6000BF0B04E11CE0158B048BF093EA0BE093AC
:101F7000E90BF583E48321E030E0DC012D933C9311
:101F80008CE695E09387828725E23CE0DA012D9389
:101F90003C9340E050E06CE872E440931C0C50939A
:101FA0001D0C60931E0C70931F0C4DEC5CEC6CECE4
:101FB0007CE3D8014D935D936D937C9313974EEF23
:101FC0005BE08AE9C82E89E3D82E8AE1E82E8EEA02
:101FD000F82EDA01CD92DD92ED92FC9213978CE807
:101FE00094E5A3E8BEE18093020C9093030CA093C8
:101FF000040CB093050C89ED96E8ACE2B1EC80934B
:10200000060C9093070CA093080CB093090C88E77A
:102010009CE0A0E9B7E080930A0C90930B0CA0938E
:102020000C0CB0930D0CACEBB6E0B383A283E0EAEA
:10203000F6E01196FC93EE938AE296E0918380831A
:102040009383828395838483978386839187808714
:102050008EE79BE0938782878DE79BE09587848757
:102060008BE79BE0978786878CE79BE0918B808B43
:102070008AE79BE0938B828B89E79BE0958B848B2F
:1020800088E79BE0978B868B87E79BE0918F808F1B
:1020900086E79BE0938F828F8EE09CE015969C9361
:1020A0008E93149713965C934E93129717963C93C6
:1020B0002E9316972CE7ECE0FAE0DF011D922A95AB
:1020C000E9F708E81AE027EFF80111922A95E9F7F5
:1020D000EEE8F6E022E1DF011D922A95E9F7DC0146
:1020E000ED93FC9380E190E0918380838AEE92E00F
:1020F000938382838AEC92E0958384838EE892E0D6
:102100009783868382E892E09187808792E3B92E55
:10211000F801B68223E3C22EC78234E3932E908661
:1021200045E3A42EA18656E3852E828667E3362EEC
:10213000338678E3272E248689E38587A1E3DA2E88
:10214000D68690E39787D08AD18AD28AB38AD48AF6
:10215000C58A8091AE039091AF03A091B003B09176
:10216000B103808F918FA28FB38F412C512C3201FC
:102170004394418252826382748261E070E080E025
:1021800090E00E940002F801978B868B20E030E0FF
:10219000A90160E070E00E941B02E1E0D801159601
:1021A000EC9315979296BC9292979396CC929397B4
:1021B00094969C9294979596AC92959796968C92BD
:1021C000969797963C92979798962C929897F9E3C2
:1021D0009996FC9399979A96DC929A9780E39B96AE
:1021E0008C939B979C96DC929C979D96DC929D97F6
:1021F0009E96DC929E979F96BC929F97D096DC927B
:10220000D097D196CC92D1975C961C928091AA03DC
:102210009091AB03A091AC03B091AD03F80184ABF6
:1022200095ABA6ABB7AB11A2458E568E678E70A24A
:1022300060E070E0CB010E940002F80193AB82AB3A
:1022400020E030E0A90160E070E00E941B02E1E0C4
:10225000D8019196EC9391978AE592E09093690B5F
:102260008093680B8AE092E090936B0B80936A0BEB
:102270001092750B1092740BB092C60AC092C70AE6
:102280009092C80AA092C90A8092CA0A3092CB0AD8
:102290002092CC0AF9E3F093CD0AD092CE0A80E3E3
:1022A0008093CF0AD092D00AD092D10AD092D20A8B
:1022B000B092D30AD092D40AC092D50AD8961C9272
:1022C000D8971092C50AD9964D925D926D927C92E4
:1022D000DC97E12CF12C8701A801970168E070E000
:1022E00080E090E00E94E1019093D70A8093D60AA3
:1022F0000E94F501B1E0B093C50AB092DE0AC09227
:10230000DF0A9092E00AA092E10A8092E20A3092FB
:10231000E30A2092E40AE9E3E093E50AD092E60AB0
:10232000F0E3F093E70AD092E80AD092E90AD0925B
:10233000EA0AB092EB0AD092EC0AC092ED0A10922F
:10234000D80A8DEDC82E8AE0D82ED6011C92409274
:10235000D90A5092DA0A6092DB0A7092DC0AA8016C
:10236000970169E070E080E090E00E94E1019093C5
:10237000EF0A8093EE0A0E94F50181E0F601808366
:102380008091A2039091A303A091A403B091A5030F
:102390008093200B9093210BA093220BB093230BDF
:1023A0008091A6039091A703A091A803B091A903DF
:1023B0008093240B9093250BA093260BB093270BAF
:1023C0004090BE035090BF036090C0037090C10363
:1023D0004092F00A5092F10A6092F20A7092F30A67
:1023E0008090C6039090C703A090C803B090C90323
:1023F0008092000B9092010BA092020BB092030B03
:10240000C090CE03D090CF03E090D003F090D103E2
:10241000C092100BD092110BE092120BF092130BA2
:102420000091A2041091A3042091A4043091A5046A
:102430000093280B1093290B20932A0B30932B0B1E
:102440004091AA045091AB046091AC047091AD042A
:102450004093380B5093390B60933A0B70933B0BBE
:102460008091B2049091B304A091B404B091B504EA
:102470008D839E83AF83B8878093480B9093490BDD
:10248000A0934A0BB0934B0B8091BA049091BB047C
:10249000A091BC04B091BD0489839A83AB83BC83B3
:1024A0008093580B9093590BA0935A0BB0935B0BEE
:1024B0004092F40A5092F50A6092F60A7092F70A76
:1024C0008092040B9092050BA092060BB092070B22
:1024D000C092140BD092150BE092160BF092170BD2
:1024E00000932C0B10932D0B20932E0B30932F0B5E
:1024F00040933C0B50933D0B60933E0B70933F0B0E
:102500008D819E81AF81B88580934C0B90934D0B4C
:10251000A0934E0BB0934F0B89819A81AB81BC8104
:1025200080935C0B90935D0BA0935E0BB0935F0B5D
:102530004092F80A5092F90A6092FA0A7092FB0AE5
:102540008092080B9092090BA0920A0BB0920B0B91
:10255000C092180BD092190BE0921A0BF0921B0B41
:102560000093300B1093310B2093320B3093330BCD
:102570004093400B5093410B6093420B7093430B7D
:102580008D819E81AF81B8858093500B9093510BC4
:10259000A093520BB093530B89819A81AB81BC817C
:1025A0008093600B9093610BA093620BB093630BCD
:1025B0004092FC0A5092FD0A6092FE0A7092FF0A55
:1025C00080920C0B90920D0BA0920E0BB0920F0B01
:1025D000C0921C0BD0921D0BE0921E0BF0921F0BB1
:1025E0000093340B1093350B2093360B3093370B3D
:1025F0004093440B5093450B6093460B7093470BED
:102600008D819E81AF81B8858093540B9093550B3B
:10261000A093560BB093570B89819A81AB81BC81F3
:102620008093640B9093650BA093660BB093670B3C
:102630008091B2039091B303A091B403B091B5031C
:102640008093840A9093850AA093860AB093870AA0
:102650008091B6039091B703A091B803B091B903EC
:102660008093800A9093810AA093820AB093830A90
:1026700028960FB6F894DEBF0FBECDBFDF91CF9185
:102680001F910F91FF90EF90DF90CF90BF90AF9090
:102690009F908F907F906F905F904F903F902F9082
:1026A00008958091880A811103C081E08093880A8F
:1026B0008091A40A811103C081E08093A40A8091D3
:1026C000C00A811107C081E08093C00A80EC9AE0C3
:1026D0000E9427028091D80A811107C081E080936F
:1026E000D80A88ED9AE00C9427020895EF92FF92A1
:1026F0000F931F93CF93DF93DC01EA01F901149646
:102700008D919C91159712960D911C911397080F1E
:10271000191F2881398118964D915C91199742179C
:10272000530728F04D915C911197452B39F17801B1
:10273000E21AF30A18964D915C911997481B590BB0
:102740004E0D5F1D4617570794F1A901460F571FFD
:1027500040175107E0F0F182E082338322836E1943
:102760007F0975836483161617061CF4382F292FEA
:1027700002C030E020E03683278313C018968D9185
:102780009C911997821B930B8617970784F071838E
:102790006083338322831582148217821682888194
:1027A0009981680F791F7983688380E001C081E097
:1027B000DF91CF911F910F91FF90EF900895CF92ED
:1027C000DF92EF92FF92CF93DF936B017C0184E461
:1027D0008C9DE0018D9DD00D1124C853D94F8AA93D
:1027E0009BA9009721F00E94BD391BAA1AAA84E474
:1027F0008C9DF0018D9DF00D1124E853F94F86A9B1
:1028000097A9009711F00E94BD3984E48C9DF001D6
:102810008D9DF00D1124E853F94F138A128A168A00
:10282000178A108E118E128E138E148E158E168EA0
:10283000178E10A211A281E090E093A382A315A2AB
:1028400014A216A217A210A611A613A612A615A6C8
:1028500014A616A617A610AA11AA13AA12AA15AA98
:1028600014AA17AA16AA11AE10AE12AE13AE14AE69
:1028700015AEDF01DE961D921D921D921C921397DC
:10288000EE5BFF4F11821082DF91CF91FF90EF90AE
:10289000DF90CF9008950F931F93CF93DF93EB01B9
:1028A000DC018D919C91FC01A681B781E881F981C1
:1028B00023E0EE0FFF1F2A95E1F712962D913C9130
:1028C0001397E20FF31F00811181AC85BD859D0137
:1028D000220F331FDC0112968D919C911397D90121
:1028E000A80FB91F8D919C9124813581232B19F458
:1028F00061E070E002C062E070E0689F9001699F53
:10290000300D789F300D112488859985289FB0015E
:10291000299F700D389F700D1124EC81FD812E9F31
:10292000C0012F9F900D3E9F900D1124800F911F8D
:10293000FA019183808373836283DF91CF911F912A
:102940000F9108952F923F924F925F926F927F92D4
:102950008F929F92AF92BF92CF92DF92EF92FF92AF
:102960000F931F93CF93DF9300D000D0CDB7DEB786
:10297000DC011496ED91FC9115970190F081E02D0A
:10298000808591859A838983A281B381BC83AB833F
:10299000FB0181909190A190B1908F01C12CD12C1D
:1029A0007601C814D904EA04FB040CF05FC0D80116
:1029B00014964D905D906D907C90179718964D9160
:1029C0005D916D917C911B97F8017096FE83ED836C
:1029D000F801A081B18183E0AA0FBB1F8A95E1F7BE
:1029E000E981FA8182819381A80FB91F2D903C90D3
:1029F0001197F80124853585220F331F8B819C8127
:102A0000280F391FF9010081118114968D919C9135
:102A10001597892B19F481E090E002C082E090E0E4
:102A2000809F9001819F300D909F300D1124249F35
:102A30008001259F100D349F100D1124249DC0018D
:102A4000259D900D349D900D1124A8016D817E81EE
:102A5000820D931D0E94553A8D819E81080F191F8A
:102A60009FEFC91AD90AE90AF90A9BCF26960FB631
:102A7000F894DEBF0FBECDBFDF91CF911F910F91B4
:102A8000FF90EF90DF90CF90BF90AF909F908F908E
:102A90007F906F905F904F903F902F900895CF93CD
:102AA000DF93DB01AE5BBA4F2C91222369F024E463
:102AB000269FF001279FF00D1124E853F94FEF01F5
:102AC00019922A95E9F71C9224E4269FF001279F8A
:102AD000F00D1124E853F94F1482158216821782E3
:102AE0001186108613861286118A108A178616861A
:102AF000DF91CF9164CE2F923F924F925F926F926F
:102B00007F928F929F92AF92BF92CF92DF92EF927D
:102B1000FF920F931F93CF93DF93CDB7DEB7289724
:102B20000FB6F894DEBF0FBECDBF6B017C011A015A
:102B300084E48C9D90018D9D300D11242853394FD4
:102B4000F90184819581A681B781892B8A2B8B2BF2
:102B500009F4B8C0A12CB12C412C512C320138877A
:102B60002F83C90104969A838983D9011896BC835F
:102B7000AB83E981FA8180819181A281B38148167A
:102B800059066A067B0694F5AB81BC81ED91FC91F8
:102B9000EA0DFB1D228133818901812C912C821445
:102BA0009304C4F4D801ED91FC91309769F08481CD
:102BB00095812D833E830E94BD39F80180819181EA
:102BC0000E94BD393E812D81FFEF8F1A9F0A0E5F53
:102BD0001F4FE5CFC9010E94BD398FEF481A580A2F
:102BE000680A780A94E0A90EB11CC3CFAF81B885FA
:102BF00018968D919C9119970E94BD39EF81F885A7
:102C000082859385892B59F1A12CB12C812C912C93
:102C100084E48C9D80018D9D100D11240E52194F5E
:102C20008214930484F4D801ED91FC91EA0DFB1D0C
:102C3000848195810E94BD39BFEF8B1A9B0AEEE01B
:102C4000AE0EB11CEDCF84E48C9DF0018D9DF00D96
:102C50001124E853F94F828593850E94BD3984E49D
:102C60008C9D90018D9D300D112489010853194FC1
:102C7000D80150968D919C9151970E94BD39F801D1
:102C8000868597850E94BD39C701B60198DDC701C9
:102C9000B60128960FB6F894DEBF0FBECDBFDF9108
:102CA000CF911F910F91FF90EF90DF90CF90BF9049
:102CB000AF909F908F907F906F905F904F903F90DC
:102CC0002F90EDCE28960FB6F894DEBF0FBECDBF85
:102CD000DF91CF911F910F91FF90EF90DF90CF90F8
:102CE000BF90AF909F908F907F906F905F904F902C
:102CF0003F902F90089524E4269FF001279FF00D28
:102D00001124E853F94F828993890497029758F464
:102D100085E090E0938B828B8FEF9FEFDC01828FB9
:102D2000938FA48FB58F08952F923F924F925F9209
:102D30006F927F928F929F92AF92BF92CF92DF92CB
:102D4000EF92FF920F931F93CF93DF93CDB7DEB730
:102D5000E0970FB6F894DEBF0FBECDBF9AA389A34C
:102D60001B016A012801390184E4849D8001859D4D
:102D7000100D112498012853394F7901D9014D9232
:102D80005D926D927C921397AB01C301B201B3DEE9
:102D9000F801E453F94FD6014D915D916D917D910C
:102DA0008D01CA01408351836283738364E070E0C4
:102DB0000E940E39F70191878087892B09F499C108
:102DC0001E8E1D8E198E1A8E1B8E1C8EF8A2EF8EF3
:102DD00097012C5F3F4F38A72FA32C5F3F4F3AA797
:102DE00029A7EFA1F8A580819181A281B381298DC6
:102DF0003A8D4B8D5C8D281739074A075B070CF01D
:102E0000E4C0A9A5BAA58D919C912D8D3E8D280F6A
:102E1000391F3A8B298BD801ED91FC91EE0FFF1FE2
:102E2000A9A1BAA18D919C91E80FF91F8081918190
:102E3000F90191838083D80114962D913D914D9194
:102E40005C9117972BA33CA34DA35EA3085F1F4F74
:102E500062E070E0C1010E940E39E989FA8993832A
:102E60008283892B09F445C11D8A1E8A1F8A188E08
:102E70002D893E894F89588D8BA19CA1ADA1BEA102
:102E8000281739074A075B070CF08CC0D801ED9072
:102E9000FC90EE0CFF1CE989FA89C280D380CE0C2D
:102EA000DF1C68E070E081E090E00E940E39D601FE
:102EB0008D939C93E989FA8982819381FC01EE0DBF
:102EC000FF1DC080D180C114D10409F412C1D80102
:102ED00014964D915D916D917C911797CA01F60101
:102EE0004083518362837383085F1F4F64E070E007
:102EF0000E940E39D60115969C938E931497892BB8
:102F000009F4F7C01C8A1B8A812C912C5401F6010C
:102F100080819181A281B38188169906AA06BB0699
:102F2000A4F5F601E480F5802B893C89E20EF31EBE
:102F3000F801DE01119680E101900D928A95E1F78A
:102F4000005F1F4FA701BE016F5F7F4FA9A1BAA10C
:102F500014968D919C9115979EDCF6012681378100
:102F6000D70112968D919C911397820F931F97838F
:102F70008683BFEF8B1A9B0AAB0ABB0A2B893C895D
:102F80002C5F3F4F3C8B2B8BC2CF2D893E894F89C5
:102F9000588D2F5F3F4F4F4F5F4F2D8B3E8B4F8B89
:102FA000588F66CF298D3A8D4B8D5C8D2F5F3F4FAB
:102FB0004F4F5F4F298F3A8F4B8F5C8F2D8D3E8DFA
:102FC0002C5F3F4F3E8F2D8F0CCF6EE070E0C10124
:102FD0000E940E39AF8DB8A11B969C938E931A97C1
:102FE000812C912CA12CB12CC12CD12C24E4249D1A
:102FF000C001259D900D11249C012E52394F3A8B12
:10300000298B21E030E0A214B3040CF04AC0D801AF
:103010004D915D916D917D918D01CA01E989FA898A
:10302000E080F180E80CF91C57FD63C0D7011196D0
:103030003C932E930097A1F02FA738AB4BA75CA72A
:103040006DA77EA70E942839F701958384832FA559
:1030500038A94BA55CA56DA57EA5892B31F449C087
:10306000D70115961C921E921497F7015383428341
:1030700084819581978386839187808713861286C2
:1030800081E090E0452B462B472B11F480E090E047
:10309000C80ED91EFFEFAF1ABF0A4EE0840E911C76
:1030A000B2CF84E4849D8001859D100D11240853C6
:1030B000194FD8011D961C921E921C97C60133E031
:1030C000880F991F3A95E1F70E942839F801918BF2
:1030D000808B892B71F0C601880F991F0E942839B7
:1030E000D8011F969C938E931E97892B11F080E038
:1030F00005C0A101C301B201FEDC81E0E0960FB67C
:10310000F894DEBF0FBECDBFDF91CF911F910F911D
:10311000FF90EF90DF90CF90BF90AF909F908F90F7
:103120007F906F905F904F903F902F9008952F92D7
:103130003F924F925F926F927F928F929F92AF9247
:10314000BF92CF92DF92EF92FF920F931F93CF9394
:10315000DF93CDB7DEB768970FB6F894DEBF0FBE2A
:10316000CDBF9C8B8B8BDB0149015A0124E4289D48
:10317000C001299D900D11249C012853394F7901DC
:103180002D913C911197F701358B248BFC01E25274
:10319000F94F14964D915D916D917C9117974083F5
:1031A000518362837383FC01EE51F94F18964D9160
:1031B0005D916D917C911B974083518362837383F2
:1031C000FC01EA51F94F1C964D915D916D917C91F6
:1031D0001F974083518362837383FC01EA50F94F48
:1031E00050965C91509751964C91519752963C91C4
:1031F000529753962C915397508341833283238364
:103200008D010C5E1F4F852F942F181619060CF098
:1032100068C0880F991F880F991F0E942839D7010D
:10322000D3969C938E93D297892B09F4BCC0212C02
:10323000312C412C512C32019701225D3F4F3E8BA6
:103240002D8B2C5F3F4F388F2F8B2E5F3F4F3A8B4C
:10325000298BB301A2012FEF421A520A620A720AA5
:10326000ED89FE8980819181A281B3814817590738
:103270006A077B074CF5AF89B88DCD90DC90C20C06
:10328000D31CF801DE01119680E101900D928A9520
:10329000E1F7005F1F4FA601BE016F5F7F4FEB8913
:1032A000FC8984819581F7DAA989BA898D919C91ED
:1032B0001197F60122813381820F931F8D939C9386
:1032C000F4E02F0E311CC5CFD701D4968D919C917F
:1032D000D5970E942839F70197AB86AB892B09F463
:1032E00062C0F80180819181A281B38124E4289D8C
:1032F000F001299DF00D1124E853F94FAC01BD01F7
:103300004D7F21E030E0452B462B472B11F020E08C
:1033100030E033A322A324E4289DF001299DF00D81
:103320001124E853F94F0197A109B10921E030E0D8
:103330000297A105B10510F020E030E035A324A3E9
:1033400084E4889DF001899DF00D1124CF01825104
:10335000994FD80114964D915D916D917C9117977D
:10336000DC014D935D936D937C931397E853F94F74
:10337000868D978DA0A1B1A1B7FF10C0B095A09583
:10338000909581959F4FAF4FBF4F82AF93AFA4AF42
:10339000B5AF168E178E10A211A20AC012AE13AED0
:1033A00014AE15AE05C0C501B40109DA81E001C053
:1033B00080E068960FB6F894DEBF0FBECDBFDF91F8
:1033C000CF911F910F91FF90EF90DF90CF90BF9022
:1033D000AF909F908F907F906F905F904F903F90B5
:1033E0002F900895CF92DF92EF92FF92CF93DF93C9
:1033F0001092500724E4269FF001279FF00D11241E
:10340000E853F94F15A614A620E030E0C12CD12CCA
:10341000DF011A96C1E0D0E0C416D506D4F4ED91D0
:10342000FC911197E20FF31FE280F3801E141F043A
:1034300054F4E480F580F782E682F186E086138614
:103440001286D183C083EFEFCE1ADE0A225F3F4F90
:10345000E3CF24E4269FF001279FF00D1124E853C9
:10346000F94F13A612A611AE10AEDF01DE961D9223
:103470001D921D921C92139782E090E0938B828B99
:10348000DF91CF91FF90EF90DF90CF90089524E4EB
:10349000269FF001279FF00D1124E853F94F138A5E
:1034A000128A29CB24E4269FF001279FF00D1124D6
:1034B000E853F94F8289938981309105C8F08530AE
:1034C000910518F0059769F008958FEF9FEFDC01E3
:1034D000828F938FA48FB58F85E090E0938B828B42
:1034E00008958FEF9FEFDC01828F938FA48FB58FAC
:1034F000089524E4249FF001259FF00D1124E85342
:10350000F94F2EE0AC01249FC001259F900D11249E
:103510000284F385E02DE80FF91F81E080935007C6
:103520008285938591878087408551852681378163
:1035300081E090E04217530711F080E090E0918322
:10354000808308952F923F924F925F926F927F9265
:103550008F929F92AF92BF92CF92DF92EF92FF92A3
:103560000F931F93CF93DF93CDB7DEB7C255D10929
:103570000FB6F894DEBF0FBECDBF21969FAF8EAFC2
:1035800021974BA75CA76DA77EA74801590184E44A
:10359000889D8001899D100D1124F801E853F94F91
:1035A0002285338527963FAF2EAF2797828993894F
:1035B000029709F060C186A597A5A0A9B1A9892B9A
:1035C0008A2B8B2B29F484E090E0938B828B53C160
:1035D0008489958921964EAD5FAD2197481759078B
:1035E00009F049C186A997A99AAB89AB1EAE1DAE59
:1035F00019AE1AAE1BAE1CAE8F01DF019E96299646
:10360000BFAFAEAF2997F2962B96FFAFEEAF2B97D9
:103610009801285C3F4F2D963FAF2EAF2D97A80104
:103620004A5D5F4F2F965FAF4EAF2F97C8018296CE
:1036300061969FAF8EAF61971A976396BFAFAEAF9B
:1036400063972996EEADFFAD299780819181A28184
:10365000B38129AD3AAD4BAD5CAD281739074A07A8
:103660005B070CF0E7C02B96EEADFFAD2B9780818A
:1036700091812DAD3EAD280F391F3EAB2DABD90149
:1036800012960D90BC91A02D2396BFAFAEAF23979D
:10369000B695A795B695A7952596BFAFAEAF2597DA
:1036A0002D96EEADFFAD2D9780819181892B09F488
:1036B00096C02F96AEADBFAD2F97CD90DD90ED901B
:1036C000FC9029A83AA8F9010190F081E02DF8AB0F
:1036D000EFA718AE1FAA8FA998AD2596AEADBFADC6
:1036E00025978A179B070CF07AC06196AEADBFADE7
:1036F00061978D919C91892B69F1EFA5F8A9408084
:10370000518062807380A7019601C301B2010E94BB
:10371000473887FD0BC0A7019601D1016D917D91BE
:103720008D919C910E94F83687FD8CC0A70196016F
:10373000C301B2010E944738181664F4A70196012C
:10374000F10160817181828193810E94F836882322
:1037500009F478C06396AEADBFAD63978D919C912F
:10376000892B69F1EFA5F8A94080518062807380B0
:10377000A7019601C301B2010E94F83687FF0BC072
:10378000A7019601D1016D917D918D919C910E942F
:10379000473887FF57C0A7019601C301B2010E94B5
:1037A000F83681110CC0A7019601F1016081718189
:1037B000828193810E94473818160CF443C02FA9C8
:1037C00038AD2F5F3F4F38AF2FAB34E0230E311CA5
:1037D0004FA558A94C5F5F4F58AB4FA77CCFEDA9C1
:1037E000FEA96081718123964EAD5FAD239789A9B3
:1037F0009AA90E94553A25968EAD9FAD2597880FC0
:10380000991F880F991F29A93AA9280F391F3AAB88
:1038100029AB89AD9AADABADBCAD0196A11DB11D73
:1038200089AF9AAFABAFBCAFADADBEAD1496BEAF76
:10383000ADAF07CF81E090E0D801D9969C938E93ED
:10384000D89719C084E4889DF001899DF00D11245A
:10385000E853F94F868D978DA0A1B1A1892B8A2BB2
:103860008B2B09F064C284E090E0938B828B86AD51
:1038700097AD93A782A784E4889DF001899DF00D00
:103880001124E853F94F828993898230910571F4AC
:1038900082AD93ADA4ADB5AD181619061A061B0678
:1038A0000CF04CC2CC24C394D12C05C0049709F071
:1038B00045C2C12CD12C8EE02196EEADFFAD2197F3
:1038C0008E9F70018F9FF00C112427962EAD3FAD77
:1038D0002797E20EF31ED70112964D915C91139734
:1038E0004115510509F42AC216968D919C9117979E
:1038F0009AA789A7FE01319684E1DF011D928A957E
:10390000E9F7898A9A8AAB8ABC8AC114D10409F47E
:1039100057C084E4889DF001899DF00D1124E8537F
:10392000F94FDF01DE964D905D906D907C9082ADF9
:1039300093ADA4ADB5AD481659066A067B0609F0ED
:103940003FC0F701648175810084F185E02D848199
:103950009581A681B7819C018D8B9E8BAF8BB88F93
:10396000285F3F4F3E8B2D8BD70118968D919C91F0
:103970001997280F391F19963C932E93189718966C
:103980008D919C911997460F571F841B950B97FD9E
:1039900006C0860F971F19969C938E93189784E400
:1039A000889DF001899DF00D1124EA5FF84FB1E088
:1039B0004B1A5108610871084082518262827382F9
:1039C0009E012B5E3F4FAE01475D5F4F64E170E0AB
:1039D000C7010E947613082F10E00115110509F0A8
:1039E00091C18CE090E0A0E0B0E08D839E83AF8336
:1039F000B8879E01235E3F4FAE01475D5F4F64E095
:103A000070E0C7010E947613082F10E00115110520
:103A100009F078C180E190E0A0E0B0E08D839E8362
:103A2000AF83B8874D8D5E8DBE01655D7F4F8F8DF5
:103A300098A10E94553A8BA19CA1009761F06D8DD1
:103A40007E8DEBE2F0E0EC0FFD1F6E0F7F1F49A1B2
:103A50005AA10E94553A1DA21EA21FA218A6219685
:103A60002EAD3FAD2197220F331F38AF2FAB24E48B
:103A7000289DC001299D900D11248853994FAC01B8
:103A80004C5F5F4F5AAF49AFDC011896BEAFADAF88
:103A90002DA13EA14FA158A529AB3AAB4BAB5CABD6
:103AA000E9ADFAAD80819181A281B38128173907F0
:103AB0004A075B070CF0CFC0ADADBEADED91FC91F8
:103AC00089A99AA9880F991F880F991FE80FF91FD4
:103AD000A081B1818C91882309F4AFC0833009F4AF
:103AE000ACC00280F381E02D2FA938ADE20FF31FA7
:103AF0004081518158AB4FA7452B09F49EC0898561
:103B00009A85AB85BC850196A11DB11D89879A87D1
:103B1000AB87BC879E01235E3F4FAE01475D5F4F81
:103B200064E070E0C7010E94761390E0009709F00E
:103B3000E8C08D819E81AF81B8850496A11DB11D1D
:103B40008D839E83AF83B8874D8D5E8DBE016B5D87
:103B50007F4F8F8D98A10E94553A8BA19CA1009711
:103B600061F06D8D7E8DA5E2B0E0AC0FBD1F6A0FD8
:103B70007B1F49A15AA10E94553A1EAA1DAA412C99
:103B8000512C3201EFA5F8A980819181A281B381E6
:103B9000481659066A067B060CF04FC0EFA5F8A937
:103BA000248035802DA93EA9220E331ED101129604
:103BB0006D917C9113979E01235E3F4FAE01475D4F
:103BC0005F4FC7010E94761390E0009709F099C0FB
:103BD000F10182819381092E000CAA0BBB0B4D8150
:103BE0005E816F817885840F951FA61FB71F8D8317
:103BF0009E83AF83B887608171814D8D5E8D8F8D7F
:103C000098A10E94553A8BA19CA1009759F0D1012F
:103C10006D917C912D8D3E8D620F731F49A15AA12C
:103C20000E94553ABFEF4B1A5B0A6B0A7B0AEDA95B
:103C3000FEA93496FEABEDABA5CF49A85AA86BA858
:103C40007CA8FFEF4F1A5F0A6F0A7F0A4DA25EA29F
:103C50006FA278A61DCF89859A85AB85BC85892BF7
:103C60008A2B8B2B09F44EC08AE190E0A0E0B0E0F3
:103C700089839A83AB83BC8321962EAD3FAD219778
:103C8000C901330FAA0BBB0B8D879E87AF87B88BFB
:103C90004D895E89BE016F5F7F4F8F89988D0E942D
:103CA000553A8B8D9C8D009761F06D897E8941E03E
:103CB00050E04C0F5D1F640F751F498D5A8D0E9497
:103CC000553A89A59AA5D70117969C938E93169776
:103CD00011961C921E92CD2889F184E4889DF001F2
:103CE000899DF00D1124EA5FF84F80819181A281B6
:103CF000B3810196A11DB11D80839183A283B383FB
:103D00001DC08C01CD28D1F4012BC1F084E4889D25
:103D1000F001899DF00D1124E853F94F81E090E006
:103D200095A784A785E090E0938B828B07C083E002
:103D300090E0938B828B81E090E09BCDCE5ADF4F59
:103D40000FB6F894DEBF0FBECDBFDF91CF911F91AC
:103D50000F91FF90EF90DF90CF90BF90AF909F902A
:103D60008F907F906F905F904F903F902F9008952D
:103D7000CF92DF92EF92FF920F931F936B017C0122
:103D800084E48C9DF0018D9DF00D1124E853F94FD2
:103D900082899389009709F450C00197B9F482A5EC
:103DA00093A59C012F5F3F4F33A722A7092E000C3C
:103DB000AA0BBB0B028D138D248D358D80179107B7
:103DC000A207B307D1F5C701B6010CDB84E48C9DD3
:103DD000F0018D9DF00D1124E853F94F82899389EC
:103DE000039759F582A593A59C012F5F3F4F33A7F9
:103DF00022A7092E000CAA0BBB0B468D578D60A184
:103E000071A184179507A607B707BCF086AD97ADDB
:103E100093A782A784E090E0938B828B82AD93ADD1
:103E2000A4ADB5AD181619061A061B0634F4EE5BE0
:103E3000FF4F81E090E0918380831F910F91FF906D
:103E4000EF90DF90CF90089524E4269FF001279F04
:103E5000F00D1124E853F94F828993890497B1F446
:103E600082A593A5019693A782A7092E000CAA0B01
:103E7000BB0B46895789608D718D84179507A607FE
:103E8000B70721F485E090E0938B828B08952F9201
:103E90003F924F925F926F927F928F929F92AF92DA
:103EA000BF92CF92DF92EF92FF920F931F93CF9327
:103EB000DF93CDB7DEB72E970FB6F894DEBF0FBEF7
:103EC000CDBF49835A836B837C834901442E552E91
:103ED00024E4249DF001259DF00D1124E853F94FB1
:103EE00022883388910124503109158614862230A6
:103EF000310508F0DDC0DC0111961C921E9213966C
:103F00001C921E921297A12CB12C60E070E09F01D0
:103F1000265F3F4F38872F837F013CE0E30EF11C83
:103F2000DF015096BA87A9879F01225F3F4F3C87E8
:103F30002B87681579050CF06FC0EF81F885A0819B
:103F4000B1819D012A0D3B1D3E872D87D9012D9101
:103F50003C911197232B09F059C018960D911C9193
:103F600019971296ED91FC911397FE83ED831696A7
:103F70002D913C911797D7014D915C91DA01E3E0C7
:103F8000AA0FBB1FEA95E1F7E985FA85C080D180C9
:103F9000FD01EC0DFD1D440F551FAB85BC85CD907B
:103FA000DC904C0D5D1DDA016D937C93D7014D9132
:103FB0005C9111974F5F5F4F4D935C931383028326
:103FC000AD85BE851B963C932E931A970217130757
:103FD00048F4201B310B3183208315821482178211
:103FE000168214C0AD85BE851496CD90DC901597D1
:103FF0004D815E814C0D5D1D401B510B51834083F3
:104000002C193D0935832483D782C6826F5F7F4F89
:10401000BEE0AB0EB11C8DCF24E4249D8001259D14
:10402000100D11240853194FF80124853585DC0142
:1040300011963C932E934089518913965C934E932D
:1040400012974685578515965C934E931497232BAC
:10405000A1F5B5E02B16310481F510925007828D41
:10406000938DA48DB58DAE014F5F5F4F64E070E01E
:104070008F3F9F4FAF4FBF4F59F480E290E00E94B7
:10408000D22D69817A818B819C81A40100DA15C0CF
:104090008FE190E00E94D22DD8019B961C921E9237
:1040A0009A9781E090E053969C938E93529705C027
:1040B000FC0111821082138212822E960FB6F894A0
:1040C000DEBF0FBECDBFDF91CF911F910F91FF904B
:1040D000EF90DF90CF90BF90AF909F908F907F90A8
:1040E0006F905F904F903F902F900895EF92FF92C6
:1040F0000F931F93CF93DF937C018B01EA010E9402
:10410000552E811121C08091440590914505049759
:1041100011F183E090E090934505809344051BC026
:1041200098819111F0CF28ED38EB45E050E060E048
:1041300070E0CB010E94DF30AE01B801C7010E94E0
:10414000ED30C8010E94B83080915107909152071C
:10415000892B31F3D8CFDF91CF911F910F91FF9031
:10416000EF900895CF93DF9320914405309145055A
:104170002430310541F0EB010E94ED30CE01DF919A
:10418000CF910C94B830DF91CF9108950C94FF3407
:104190000C94F4340C94E2340C94C8300C948634AF
:1041A000089560E070E080E090E00C94302E089577
:1041B000AF92BF92CF92DF92EF92FF920F931F9335
:1041C000CF93DF931F921F92CDB7DEB75C016901D9
:1041D0007A018B0180E090E0C114D104E104F10484
:1041E000F1F0C114D10421E0E206F10410F4A601BB
:1041F00002C04FEF5FEF9E012F5F3F4FB801C50137
:104200000E94A2358F3F2FEF920749F029813A8112
:10421000C21AD30AE108F108020F131FDDCF0F9075
:104220000F90DF91CF911F910F91FF90EF90DF9052
:10423000CF90BF90AF900895089508951F920F9268
:104240000FB60F9211240BB60F922F933F934F93FB
:104250005F936F937F938F939F93AF93BF93EF93EE
:10426000FF93E0914A05F0914B051995FF91EF916D
:10427000BF91AF919F918F917F916F915F914F917E
:104280003F912F910F900BBE0F900FBE0F901F907C
:1042900018951F920F920FB60F9211240BB60F9222
:1042A0002F933F934F935F936F937F938F939F933E
:1042B000AF93BF93EF93FF93E0914C05F0914D05C1
:1042C0001995FF91EF91BF91AF919F918F917F9140
:1042D0006F915F914F913F912F910F900BBE0F9077
:1042E0000FBE0F901F9018951F920F920FB60F924E
:1042F00011240BB60F922F933F934F935F936F93BD
:104300007F938F939F93AF93BF93EF93FF93E0912E
:104310004E05F0914F051995FF91EF91BF91AF9127
:104320009F918F917F916F915F914F913F912F91CD
:104330000F900BBE0F900FBE0F901F9018951F92FD
:104340000F920FB60F9211240BB60F922F933F933B
:104350004F935F936F937F938F939F93AF93BF938D
:10436000EF93FF93E0915005F09151051995FF915E
:10437000EF91BF91AF919F918F917F916F915F91DD
:104380004F913F912F910F900BBE0F900FBE0F904A
:104390001F9018951F920F920FB60F9211240BB613
:1043A0000F922F933F934F935F936F937F938F93CE
:1043B0009F93AF93BF93EF93FF93E0914605F091E6
:1043C00047051995FF91EF91BF91AF919F918F9103
:1043D0007F916F915F914F913F912F910F900BBE05
:1043E0000F900FBE0F901F9018951F920F920FB64F
:1043F0000F9211240BB60F922F933F934F935F931D
:104400006F937F938F939F93AF93BF93EF93FF939C
:10441000E0914805F09149051995FF91EF91BF9101
:10442000AF919F918F917F916F915F914F913F914C
:104430002F910F900BBE0F900FBE0F901F901895ED
:104440001F920F920FB60F9211240BB60F922F935B
:104450003F934F935F936F937F938F939F93AF930C
:10446000BF93EF93FF93E0915205F0915305199597
:10447000FF91EF91BF91AF919F918F917F916F913C
:104480005F914F913F912F910F900BBE0F900FBEF8
:104490000F901F9018951F920F920FB60F92112434
:1044A0000BB60F922F933F934F935F936F937F932E
:1044B0008F939F93AF93BF93EF93FF93E091540536
:1044C000F09155051995FF91EF91BF91AF919F9193
:1044D0008F917F916F915F914F913F912F910F90AD
:1044E0000BBE0F900FBE0F901F9018951F920F924A
:1044F0000FB60F9211242F933F938F939F93AF93F7
:10450000BF938091540790915507A0915607B091A1
:1045100057073091530723E0230F2D3720F40196DE
:10452000A11DB11D05C026E8230F0296A11DB11DD6
:10453000209353078093540790935507A0935607F1
:10454000B09357078091580790915907A0915A0747
:10455000B0915B070196A11DB11D80935807909300
:104560005907A0935A07B0935B07BF91AF919F91F2
:104570008F913F912F910F900FBE0F901F90189524
:104580003FB7F8948091580790915907A0915A0726
:10459000B0915B0726B5A89B05C02F3F19F0019687
:1045A000A11DB11D3FBFBA2FA92F982F8827820FB9
:1045B000911DA11DB11DBC01CD0142E0660F771F09
:1045C000881F991F4A95D1F708958F929F92AF92B5
:1045D000BF92CF92DF92EF92FF926B017C01D0DF0E
:1045E0004B015C01C114D104E104F104F1F024DEBB
:1045F000C7DFDC01CB0188199909AA09BB09883EEC
:104600009340A105B10570F321E0C21AD108E10879
:10461000F10888EE880E83E0981EA11CB11CC1141D
:10462000D104E104F10421F7DDCFFF90EF90DF909A
:10463000CF90BF90AF909F908F900895789484B55D
:10464000826084BD84B5816084BD85B5826085BD8E
:1046500085B5816085BDEEE6F0E080818160808374
:10466000E1E8F0E010828081826080838081816057
:104670008083E0E8F0E0808181608083E1EBF0E01E
:10468000808184608083E0EBF0E0808181608083C2
:10469000E1E9F0E0808182608083808181608083B5
:1046A000E0E9F0E0808181608083E1EAF0E08081F0
:1046B00082608083808181608083E0EAF0E0808195
:1046C00081608083E1E2F1E080818260808380818B
:1046D00081608083E0E2F1E0808181608083EAE7AD
:1046E000F0E080818460808380818260808380812B
:1046F000816080838081806880831092C1000895EA
:10470000863308F0865390917B00282F2870977F7E
:10471000922B90937B0087702091560590E4299FFF
:1047200090011124822B80937C0080917A00806418
:1047300080937A0080917A0086FDFCCF809178008A
:104740002091790090E0922B08951F93CF93DF93EF
:10475000182FEB0161E016D1209711F460E004C03E
:10476000CF3FD10531F461E0812FDF91CF911F91CF
:1047700045C1E12FF0E0E45BFE4FE4914E2F50E0A5
:10478000FA013197E231F10508F09DC08827EE5813
:10479000FF4F8F4F0C94E33884B5806884BDC7BD4C
:1047A00097C084B5806284BDC8BD92C080918000EE
:1047B000806880938000D0938900C093880088C06F
:1047C00080918000806280938000D0938B00C093A2
:1047D0008A007EC080918000886080938000D093A2
:1047E0008D00C0938C0074C08091B000806880936D
:1047F000B000C093B3006CC08091B0008062809321
:10480000B000C093B40064C0809190008068809331
:104810009000D0939900C09398005AC08091900066
:10482000806280939000D0939B00C0939A0050C008
:1048300080919000886080939000D0939D00C093F9
:104840009C0046C08091A00080688093A000809169
:10485000A0008F7B8093A000D093A900C093A800F4
:1048600037C08091A00080628093A000D093AB00FD
:10487000C093AA002DC08091A00088608093A00002
:10488000D093AD00C093AC0023C08091200180681C
:1048900080932001D0932901C093280119C08091F1
:1048A0002001806280932001D0932B01C0932A01C4
:1048B0000FC080912001886080932001D0932D014A
:1048C000C0932C0105C0C038D1050CF04CCF46CFA9
:1048D000DF91CF911F91089590E0FC013197E23173
:1048E000F10508F04EC08827EC57FF4F8F4F0C940E
:1048F000E338809180008F7703C0809180008F7DA6
:1049000080938000089580918000877FF9CF84B5DF
:104910008F7702C084B58F7D84BD08958091B000EB
:104920008F7703C08091B0008F7D8093B000089591
:10493000809190008F7707C0809190008F7D03C099
:1049400080919000877F8093900008958091A000CF
:104950008F7707C08091A0008F7D03C08091A00059
:10496000877F8093A0000895809120018F7707C0F2
:10497000809120018F7D03C080912001877F8093EB
:1049800020010895CF93DF9390E0FC01EE56FE4F97
:104990002491FC01E852FE4F8491882361F190E05C
:1049A000880F991FFC01E85CFD4FC591D491FC0173
:1049B000E25EFD4FA591B491611109C09FB7F894D3
:1049C0008881209582238883EC912E230BC062304E
:1049D00061F49FB7F8943881822F80958323888370
:1049E000EC912E2B2C939FBF06C08FB7F894E881D3
:1049F0002E2B28838FBFDF91CF9108951F93CF93E4
:104A0000DF93282F30E0F901E45BFE4F8491F90138
:104A1000EE56FE4FD491F901E852FE4FC491CC23DB
:104A2000C1F0162F811158DFEC2FF0E0EE0FFF1FC1
:104A3000E25EFD4FA591B4918FB7F894111105C0B6
:104A40009C91ED2FE095E92302C0EC91ED2BEC93C6
:104A50008FBFDF91CF911F910895FC01918D228D21
:104A6000892F90E0805C9F4F821B91098F7399275B
:104A70000895FC01918D828D981731F0828DE80F99
:104A8000F11D858D90E008958FEF9FEF0895FC0153
:104A9000918D828D981761F0828DDF01A80FB11D75
:104AA0005D968C91928D9F5F9F73928F90E0089599
:104AB0008FEF9FEF0895FC01848DDF01A80FB11DDA
:104AC000A35ABF4F2C91848D90E001968F73992744
:104AD000848FA689B7892C93A089B1898C91806431
:104AE0008C93938D848D981306C00288F389E02DF2
:104AF00080818F7D80830895CF93DF93EC01888D33
:104B00008823C1F0EA89FB89808185FD05C0A889D9
:104B1000B9898C9186FD0EC00FB607FCF5CF808158
:104B200085FFF2CFA889B9898C9185FFEDCFCE01A1
:104B3000C2DFE8CFDF91CF910895EF92FF920F93FC
:104B40001F93CF93DF93EC0181E0888F9B8D8C8D39
:104B5000981305C0E889F989808185FD23C0F62E68
:104B60000B8D10E00F5F1F4F0F731127E02E8C8D00
:104B7000E8120BC00FB607FCFACFE889F9898081EB
:104B800085FFF5CFCE0197DFF2CF8B8DFE01E80FC9
:104B9000F11DE35AFF4FF0820B8FEA89FB89808178
:104BA000806207C0EE89FF896083E889F989808186
:104BB0008064808381E090E0DF91CF911F910F911D
:104BC000FF90EF900895CF92DF92EF92FF921F93A4
:104BD000CF93DF93EC016A017B01122FE889F989F9
:104BE00082E080834115514E61057105B1F060E0AE
:104BF00079E08DE390E0A70196010E94C138DA01C7
:104C0000C9010197A109B109B695A795979587950F
:104C1000AC01411580E15807A8F0E889F9891082B4
:104C200060E874E88EE190E0A70196010E94C13827
:104C3000BA01A90141505109610971097695679539
:104C400057954795EC85FD855083EE85FF8540831C
:104C5000188EEC89FD891083EA89FB898081806147
:104C60008083EA89FB89808188608083EA89FB8967
:104C7000808180688083EA89FB8980818F7D808341
:104C8000DF91CF911F91FF90EF90DF90CF9008952B
:104C90001F920F920FB60F9211240BB60F922F9303
:104CA0008F939F93EF93FF93E0916C07F0916D07C3
:104CB0008081E0917207F091730782FD12C09081AC
:104CC000809175078F5F8F7320917607821751F05F
:104CD000E0917507F0E0E45AF84F958F80937507DF
:104CE00001C08081FF91EF919F918F912F910F9043
:104CF0000BBE0F900FBE0F901F9018951F920F9232
:104D00000FB60F9211240BB60F922F933F934F9330
:104D10005F936F937F938F939F93AF93BF93EF9323
:104D2000FF938CE597E0C7DEFF91EF91BF91AF91C4
:104D30009F918F917F916F915F914F913F912F91B3
:104D40000F900BBE0F900FBE0F901F901895ECE5C3
:104D5000F7E01382128288EE93E0A0E0B0E0848353
:104D60009583A683B78381E396E09183808385EC66
:104D700090E09587848784EC90E09787868780EC25
:104D800090E0918B808B81EC90E0938B828B82EC16
:104D900090E0958B848B86EC90E0978B868B118EC0
:104DA000128E138E148E08951F920F920FB60F92CB
:104DB00011240BB60F922F938F939F93EF93FF9332
:104DC000E0910908F0910A088081E0910F08F091C4
:104DD000100882FD12C09081809112088F5F8F733E
:104DE00020911308821751F0E0911208F0E0E7508B
:104DF000F84F958F8093120801C08081FF91EF9149
:104E00009F918F912F910F900BBE0F900FBE0F901F
:104E10001F9018951F920F920FB60F9211240BB688
:104E20000F922F933F934F935F936F937F938F9343
:104E30009F93AF93BF93EF93FF9389EF97E03BDE90
:104E4000FF91EF91BF91AF919F918F917F916F9162
:104E50005F914F913F912F910F900BBE0F900FBE1E
:104E60000F901F901895E9EFF7E01382128288EEF9
:104E700093E0A0E0B0E084839583A683B78381E3C9
:104E800096E0918380838DEC90E0958784878CEC0D
:104E900090E09787868788EC90E0918B808B89ECF7
:104EA00090E0938B828B8AEC90E0958B848B8EECD8
:104EB00090E0978B868B118E128E138E148E089530
:104EC0001F920F920FB60F9211240BB60F922F93D1
:104ED0008F939F93EF93FF93E091A608F091A7081B
:104EE0008081E091AC08F091AD0882FD12C0908104
:104EF0008091AF088F5F8F732091B008821751F0B7
:104F0000E091AF08F0E0EA56F74F958F8093AF0835
:104F100001C08081FF91EF919F918F912F910F9010
:104F20000BBE0F900FBE0F901F9018951F920F92FF
:104F30000FB60F9211240BB60F922F933F934F93FE
:104F40005F936F937F938F939F93AF93BF93EF93F1
:104F5000FF9386E998E0AFDDFF91EF91BF91AF91AC
:104F60009F918F917F916F915F914F913F912F9181
:104F70000F900BBE0F900FBE0F901F901895E6E993
:104F8000F8E01382128288EE93E0A0E0B0E0848320
:104F90009583A683B78381E396E09183808385ED33
:104FA00090E09587848784ED90E09787868780EDF1
:104FB00090E0918B808B81ED90E0938B828B82EDE2
:104FC00090E0958B848B86ED90E0978B868B118E8D
:104FD000128E138E148E08951F920F920FB60F9299
:104FE00011240BB60F922F938F939F93EF93FF9300
:104FF000E0914309F09144098081E0914909F091E1
:105000004A0982FD12C0908180914C098F5F8F7395
:1050100020914D09821751F0E0914C09F0E0ED5CD0
:10502000F64F958F80934C0901C08081FF91EF91DD
:105030009F918F912F910F900BBE0F900FBE0F90ED
:105040001F9018951F920F920FB60F9211240BB656
:105050000F922F933F934F935F936F937F938F9311
:105060009F93AF93BF93EF93FF9383E399E023DD87
:10507000FF91EF91BF91AF919F918F917F916F9130
:105080005F914F913F912F910F900BBE0F900FBEEC
:105090000F901F901895E3E3F9E01382128288EED7
:1050A00093E0A0E0B0E084839583A683B78381E397
:1050B00096E09183808385E391E09587848784E3FC
:1050C00091E09787868780E391E0918B808B81E3E5
:1050D00091E0938B828B82E391E0958B848B86E3C6
:1050E00091E0978B868B118E128E138E148E0895FD
:1050F0008F929F92AF92BF92CF92DF92EF92FF92E8
:105100000F931F93CF93DF937C018B016C0182E09F
:10511000C80ED11C4701E5E08E0E911CC0E0D0E026
:10512000F60161916F014AE050E0C801C6D05C0110
:105130006EE2C80167D08A0D9B1DC80FD91FC81425
:10514000D90471F74AE050E0F7016581C801B5D094
:105150008C0F9D1FDF91CF911F910F91FF90EF90CA
:10516000DF90CF90BF90AF909F908F900895E0ED2B
:10517000F9E081E496E091838083128213821482A5
:1051800015820895CF92DF92EF92FF920F931F93B3
:10519000CF93DF936C017A018B01C0E0D0E0CE1594
:1051A000DF0589F0D8016D918D01D601ED91FC915B
:1051B0000190F081E02DC6011995892B11F47E0133
:1051C00002C02196ECCFC701DF91CF911F910F91C3
:1051D000FF90EF90DF90CF9008956115710579F001
:1051E000FB0101900020E9F73197AF01461B570BF7
:1051F000DC01ED91FC910280F381E02D199480E0B7
:1052000090E00895DC01ED91FC910190F081E02D9A
:1052100019944F925F926F927F92EF92FF920F9349
:105220001F93CF93DF93CDB7DEB7A1970FB6F89456
:10523000DEBF0FBECDBF7C01FA01CB0119A2223027
:1052400008F42AE08E010F5D1F4F422E512C612C75
:10525000712CBF01A30192010E94C138F901CA015A
:10526000015011096A3014F4605D01C0695CD80115
:105270006C93232B242B252B61F7B801C701ADDFDD
:10528000A1960FB6F894DEBF0FBECDBFDF91CF91D0
:105290001F910F91FF90EF907F906F905F904F90D4
:1052A00008952115310541F4DC01ED91FC91019047
:1052B000F081E02D642F1994ACCF9A01462F50E075
:1052C00060E070E0EECF8230A9F028F4882349F046
:1052D000813051F00895843021F1E8F0853039F1C2
:1052E000089510926E00089580916F008D7F8093D5
:1052F0006F000895809170008D7F8093700081E031
:105300008093B0008091B100887F84608093B10069
:105310001092B3000895809171008D7F8093710089
:105320000895809172008D7F80937200089580911E
:1053300073008D7F809373000895CF93C82F809161
:1053400057058C1307C0E2E5F2E0E4918FEF8093FC
:10535000570501C0EFEF8E2FB6DF60E08C2FCF91A5
:105360004DCB1F920F920FB60F9211240BB60F92D6
:105370002F933F934F935F936F937F938F939F935D
:10538000AF93BF93EF93FF938091D9099091DA097E
:10539000A091DB09B091DC09892B8A2B8B2B51F171
:1053A0008091D609E091D709F091D8099081892799
:1053B00080838091D9099091DA09A091DB09B0919D
:1053C000DC09181619061A061B06BCF48091D909C7
:1053D0009091DA09A091DB09B091DC090197A1094C
:1053E000B1098093D9099093DA09A093DB09B093AE
:1053F000DC0903C080915705A0DFFF91EF91BF91B9
:10540000AF919F918F917F916F915F914F913F915C
:105410002F910F900BBE0F900FBE0F901F901895FD
:1054200040E855E260E070E080E090E000C081304C
:10543000910571F01CF4892B39F0089582309105A3
:1054400059F0039769F0089526E08CE597E00BC0CA
:1054500026E089EF97E007C026E086E998E003C0E0
:1054600026E083E399E0AFCB1F920F920FB60F9225
:1054700011240BB60F922F933F934F935F936F932B
:105480007F938F939F93AF93BF93EF93FF9386E99F
:1054900097EE90932501809324010E94DC35FF91C3
:1054A000EF91BF91AF919F918F917F916F915F919C
:1054B0004F913F912F910F900BBE0F900FBE0F9009
:1054C0001F90189586E997EE90932501809324010B
:1054D000A3E7B0E08C918E7F8C93E0E2F1E08081D5
:1054E0008C7F8083E1E2F1E08081877E8083808110
:1054F0008360808380818B7F80838C9181608C939B
:105500000895E3E7F0E080818E7F8083089581E055
:1055100008956F927F928F929F92AF92BF92CF9297
:10552000DF92EF92FF920F931F93CF93DF935C0173
:105530007B014A0101E010E00E151F0564F56801CA
:105540008FEFC81AD80AE801CC0FDD1FC80DD91D8E
:105550006880798061147104E1F063E476E0C3014E
:105560000E94653A892B19F41982188212C066E4E8
:1055700076E0C3010E94653A892B59F4CE14DF040A
:1055800041F06801E2E0CE0ED11C198218821B8224
:105590001A828601D1CF81E0F5018083B401C70171
:1055A0000E942C35F5019283818380E090E0DF91A9
:1055B000CF911F910F91FF90EF90DF90CF90BF9010
:1055C000AF909F908F907F906F9008958DED99E0B0
:1055D000089580E008950F931F93CF93DF938B017D
:1055E000BA01E901198218829801012E000C440BBE
:1055F000550BFC01818192810E94D820019621F0F7
:105600001983088380E001C081E0DF91CF911F9171
:105610000F9108950F931F93CF93DF931F921F92C3
:10562000CDB7DEB7FB018A01B9019E012F5F3F4F65
:10563000AF01FC01818192810E944335019639F0CE
:1056400089819A81F8019183808380E001C081E0A3
:105650000F900F90DF91CF911F910F910895FC0152
:10566000808108950895089581E0FB01808380E0A2
:10567000089508951092070A0895FC01818192818E
:105680000C942135CF93DF93CDB7DEB72A970FB6B1
:10569000F894DEBF0FBECDBFAC01CB0160E070E07F
:1056A00049835A836B837C83092E000CAA0BBB0BA6
:1056B0008D839E83AF83B8879E01275F3F4FAE01E6
:1056C0004F5F5F4F68E070E08091F6099091F709B5
:1056D00082DF811108C081E029853A8528303105B3
:1056E00019F480E001C081E02A960FB6F894DEBF7D
:1056F0000FBECDBFDF91CF9108950F931F93CF932E
:10570000DF931F921F92CDB7DEB78B019E012F5FF3
:105710003F4FAC018091F6099091F7095CDF811150
:1057200008C081E029813A812017310719F480E00F
:1057300001C081E00F900F90DF91CF911F910F91E9
:105740000895CF93DF93EC011092FA091092F909B2
:105750001092060A1092050AAC0160E070E0CB01DD
:105760000E94471AAE0161E070E080E090E00E9484
:10577000471A8091F6099091F709DF91CF9179CF7F
:105780004F925F926F927F928F929F92AF92BF9251
:10579000CF92DF92EF92FF920F931F93CF93DF93FD
:1057A0001F921F92CDB7DEB79C016C0197FF03C01B
:1057B00087E0C80ED11C43E0D594C7944A95E1F721
:1057C000C90168E070E00E94AE387C0189010E5F7B
:1057D0001F4F8091F4099091F509801791070CF003
:1057E000DCC08091F2099091F309009731F00E949A
:1057F000BD391092F5091092F409C8010E942839A8
:105800009093F3098093F209892B29F01093F509FD
:105810000093F409C2C0A12CB12CAC14BD040CF04F
:105820005EC0412C512C320100E010E0980125505F
:10583000364FAE014F5F5F4F61E070E08091F60937
:105840009091F709E7DE811198C189819A812FEF44
:10585000421A520A620A720A20E942162FE55206DB
:1058600021E0620671043CF06091050A7091060A1D
:105870008DEE90E02DC0080F191F0A30110551F56B
:1058800049E050E060E070E08BEF99E00E94CE3597
:105890006091050A7091060A8823C1F08091030A7D
:1058A00090E06817790709F0B8CF8EEE90E0EADE55
:1058B0008091050A9091060A019699279093060A0D
:1058C0008093050A8FEFA81AB80AA7CF8FEE90E051
:1058D000D9DEA7CF0A3011050CF4A8CF9ECFEF2850
:1058E00009F44BC1C12CD12C760100E010E09801E5
:1058F0002550364FAE014F5F5F4F61E070E0809101
:10590000F6099091F70986DE811137C189819A8164
:105910002FEFC21AD20AE20AF20A20E9C2162FE5D4
:10592000D20621E0E206F1043CF06091050A709194
:10593000060A8DEE90E02AC0080F191F0A301105E3
:1059400039F549E050E060E070E08BEF99E00E94AB
:10595000CE356091050A7091060A8823A9F08091DE
:10596000030A90E06817790709F007C18EEE90E00E
:1059700089DE8091050A9091060A019699279093F5
:10598000060A8093050AF9C08FEE90E07BDEAACF6D
:105990000A3011050CF4ABCFF0C000E010E00C159C
:1059A0001D050CF077C0412C512C3201A12CB12CDB
:1059B000480193E0880C991C9A95E1F72091F2092F
:1059C0003091F309C4018A0D9B1D280F391FAE01C8
:1059D0004F5F5F4F61E070E08091F6099091F709A9
:1059E00019DE8111CAC089819A812FEF421A520AA9
:1059F000620A720A20E942162FE5520621E0620689
:105A000071043CF06091050A7091060A8DEE90E0F9
:105A100034C0A80EB91E8AE0A816B104A9F549E061
:105A200050E0B4018091F2099091F3090E94CE35C3
:105A30006091050A7091060A8823E9F08091F209C5
:105A40009091F309FC01E80DF91D808590E068173D
:105A5000790709F0A4CF8EEE90E014DE8091050A5C
:105A60009091060A019699279093060A8093050A59
:105A70000F5F1F4F94CF8FEE90E004DE412C512C2E
:105A80003201A12CB12C9ACF2AE0A216B1040CF459
:105A900095CF85CFE114F10409F46AC0680183E071
:105AA000CC0CDD1C8A95E1F7812C912C540100E08F
:105AB00010E098012550364FAE014F5F5F4F61E017
:105AC00070E08091F6099091F709A4DD811155C02D
:105AD00089819A812FEF821A920AA20AB20A20E9DA
