:10000000AEC100000C94DF170C940A180C9435183C
:100010000C9460180C948B180C94B6180C94E1187E
:100020000C940C19CDC10000CBC10000C9C1000067
:10003000C7C100000C947220C3C10000C1C1000000
:10004000BFC10000BDC10000BBC10000B9C10000BC
:10005000B7C10000B5C10000B3C100000C9437194E
:10006000AFC100000C94091D0C943F1DA9C10000F4
:10007000A7C10000A5C10000A3C10000A1C10000EC
:100080009FC100009DC100009BC1000099C10000FC
:100090000C94951D0C94CB1D93C1000091C10000E0
:1000A0008FC100008DC100008BC1000089C100001C
:1000B00087C1000085C1000083C1000081C100002C
:1000C0007FC100007DC100000C94F5200C94211E1E
:1000D0000C94571E75C100000C94AD1E0C94E31EC9
:1000E0006FC100008D1A921A971AA11AAB1A241B1D
:1000F000B51ABD1AC51ACF1AD91AE31AF21AFC1A80
:10010000241B061B101B1A1B481B4B1B3A1B3E1BB8
:10011000441B821B4F1B531B591B5D1B611B671B21
:100120006B1B6F1B821B751B791B7D1B0429C22A4D
:100130002C2B2F2B062A392AC328E428A728092B81
:10014000F82A052B2F2B2F2B2F2B922800000A0B80
:1001500002090C0D0E080703040100000000000056
:10016000000000000000000000000000000000008F
:10017000000000000000000012111000000000004C
:10018000000000000000000000000000000000006F
:10019000000001021020200808102040102040809C
:1001A000020102010804020101020408102040803B
:1001B00080402010080402018004020180402010C9
:1001C0000804020108040201010204081020408012
:1001D00001020408102040800505050507050808F0
:1001E0000808020202020A0A0808040404040101C1
:1001F00001010101010103030303030303030407D6
:1002000007070C0C0C0C0C0C0C0C0202020206066C
:100210000606060606060B0B0B0B0B0B0B0B000062
:100220002200250028002B002E003100340002019E
:100230000000050108010B01000021002400270037
:100240002A002D00300033000101000004010701E5
:100250000A0102001D3A2774694E53E8F5D2CF9C7B
:1002600081A6BBCDD0F7EAB9A4839E25381F0251E1
:100270004C6B76879ABDA0F3EEC9D46F7255481BBC
:1002800006213C4A57706D3E230419A2BF9885D6BB
:10029000CBECF1130E2934677A5D40FBE6C1DC8FAD
:1002A00092B5A8DEC3E4F9AAB7908D362B0C1142A3
:1002B0005F78659489AEB3E0FDDAC77C61465B0880
:1002C00015322F5944637E2D30170AB1AC8B96C579
:1002D000D8FFE2263B1C01524F6875CED3F4E9BA31
:1002E000A7809DEBF6D1CC9F82A5B8031E39247759
:1002F0006A4D50A1BC9B86D5C8EFF24954736E3D40
:1003000020071A6C71564B1805223F8499BEA3F042
:10031000EDCAD735280F12415C7B66DDC0E7FAA92C
:10032000B4938EF8E5C2DF8C91B6AB100D2A37641A
:10033000795E43B2AF8895C6DBFCE15A47607D2EFB
:100340003314097F6245580B16312C978AADB0E300
:10035000FED9C400681DF41D801E0C1F781F1124D7
:100360001FBECFEFD1E2DEBFCDBF00E00CBF17E074
:10037000A0E0B2E0E6E7F1E600E00BBF02C00790C4
:100380000D92A63DB107D9F72CE0A6EDB7E001C06C
:100390001D92A339B207E1F711E0CFEAD1E000E006
:1003A00006C021970109802FFE010E942E2FCA3A14
:1003B000D10780E00807A9F70E94B92C0C94B93046
:1003C0001FCE1F93CF93DF931F92CDB7DEB7162FAB
:1003D00061E0812F79830E94831B812F7981972F80
:1003E0000F90DF91CF911F9108950895CF93C82F5B
:1003F000CB01BA010E94AF2D8C2FCF910C94661ABD
:10040000CF92DF92EF92FF926B017C0186E3C816D8
:10041000D104E104F10428F486E3C80ED11CE11CE8
:10042000F11C60E08C2D0E94831BC601FF90EF90B1
:10043000DF90CF9008950895CF93DF93EB010E9452
:10044000411A99838883DF91CF9108950895FC0123
:1004500081819281A381B4810197A105B10549F4FD
:100460008581882331F040E050E0BA018689978980
:10047000BDCF08952F923F924F925F926F927F92DD
:100480008F929F92AF92BF92CF92DF92EF92FF92A4
:100490000F931F93CF93DF93CDB7DEB7E2970FB6DD
:1004A000F894DEBF0FBECDBFC090A602D090A702C9
:1004B000E090A802F090A902A70196016091830B39
:1004C0007091840B8091850B9091860B0E94AB2DCF
:1004D000882341F0C092830BD092840BE092850B6D
:1004E000F092860B8091810B9091820BAFDF43E0FD
:1004F00050E06DE87CE08091810B9091820B9CDF55
:10050000C090A202D090A302E090A402F090A502B5
:10051000A701960160919F0B7091A00B8091A10B98
:100520009091A20B0E94AB2D882341F0C0929F0BAB
:10053000D092A00BE092A10BF092A20B80919D0BA8
:1005400090919E0B83DF43E050E0BE016F5E7F4FD2
:1005500080919D0B90919E0B6FDF2091D602309180
:10056000D7024091D8025091D90260915A0B7091F4
:100570005B0B80915C0B90915D0B0E94AB2D87FF14
:1005800015C08091DA029091DB02A091DC02B0915B
:10059000DD0289879A87AB87BC878091DE029091C4
:1005A000DF02A091E002B091E10214C08091E2026A
:1005B0009091E302A091E402B091E50289879A87C5
:1005C000AB87BC878091E6029091E702A091E80298
:1005D000B091E9028D879E87AF87B88B80E5E1EF08
:1005E000FBE0DF011D928A95E9F749855A856B8505
:1005F0007C858D859E85AF85B889408351836283D4
:10060000738384839583A683B78338962CE0E13483
:10061000F20799F780E090E0FC01EF5BF34FDC011B
:10062000A552B44F4D915D916D917C914083518362
:100630006283738304968431910571F7A091C2039C
:10064000B091C30320918D0C30918E0C0E94362FF7
:100650000E94E02D20E030E040E856E30E94962E14
:100660002091C6023091C7024091C8025091C90240
:100670000E94462D2091CA023091CB024091CC02BB
:100680005091CD020E94962E69837A838B839C833E
:10069000A091C403B091C50329893A890E94362FDD
:1006A0000E94E02D20E030E040E856E30E94962EC4
:1006B0002091CE023091CF024091D0025091D102D0
:1006C0000E94462D2091D2023091D3024091D40253
:1006D0005091D5020E94962E6D837E838F839887DA
:1006E000CE0101964C015E0199E0A90EB11CE12CEE
:1006F000F12CE1E4CE2EECE0DE2E00E010E0412C07
:10070000512C3201F701E659F84F1F01D6012D9106
:100710003D914D915D916D01F801EE0FFF1FE20DCE
:10072000F31D6081062E000C770B880B990B2FA709
:1007300038AB49AB5AAB0E94E22D2FA538A949A985
:100740005AA90E94962E9B01AC01C301B2010E94DE
:10075000472D2B013C010F5F1F4F05301105B1F6EE
:10076000F40161917191819191914F01A3019201E5
:100770000E94462DD5016D937D938D939D935D01D0
:10078000EA94EF2821F0EE24E394F12CB2CF8D858A
:100790009E85AF85B8898FA398A7A9A7BAA7898591
:1007A0009A85AB85BC858BA79CA7ADA7BEA702E4A5
:1007B00017E071E4E72E7CE0F72E68010C5F1F4F15
:1007C000D7018D909D90AD90BD907D01F60124895B
:1007D0003589468957896FA178A589A59AA50E9470
:1007E000962E2B013C01D6012D913D914D915C91AE
:1007F0006BA57CA58DA59EA50E94962E9B01AC01A4
:10080000C301B2010E94472DA50194010E94472D0A
:10081000F701608B718B828B938BF7E006351F0796
:1008200061F68091D70B9091D80BA091D90BB09124
:10083000DA0B8F8F98A3A9A3BAA38091D30B9091C1
:10084000D40BA091D50BB091D60B8BA39CA3ADA3D9
:10085000BEA3A9E6BCE0B88FAF8BE2EBF5E0FC8B62
:10086000EB8B82EF96E09C8F8B8F212C312C00E05C
:1008700010E0C12CD12C7601EB8DFC8DE00FF11F27
:10088000D801AB5AB34F2D913D914D915C91608150
:100890007181828193810E94962E9B01AC01C701D8
:1008A000B6010E94472D6B017C010C5F1F4F043184
:1008B000110511F761EF662E6BE0762E00E010E077
:1008C000812C912C5401D3016D917D918D919D913D
:1008D0003D01EB89FC89E00FF11F208131814281CC
:1008E00053810E94962E9B01AC01C501B4010E9468
:1008F000472D4B015C010C5F1F4F0035110519F7A7
:10090000F10143E0EE0FFF1F4A95E1F7EA56FA4F77
:1009100020813181428153816F8D78A189A19AA173
:100920000E94962E2B013C01F10153E0EE0FFF1FB8
:100930005A95E1F7EE56FA4F208131814281538179
:100940006BA17CA18DA19EA10E94962E9B01AC0162
:10095000C301B2010E94472D2B013C01A501940166
:10096000C701B6010E94472D9B01AC01C301B20132
:100970000E94472DEF89F88D608B718B828B938B52
:10098000DF011D921D921D921D92B88FAF8BBFEF9C
:100990002B1A3B0AEB89FC89E05BFF4FFC8BEB8B4E
:1009A0008B8D9C8D44969C8F8B8F94E029163104FF
:1009B00009F05DCF4090790C50907A0C60907B0CE0
:1009C00070907C0C80917D0C90917E0CA0917F0C9E
:1009D000B091800C8B8B9C8BAD8BBE8B8091810CEE
:1009E0009091820CA091830CB091840C8F8B988F86
:1009F000A98FBA8F8091850C9091860CA091870C5D
:100A0000B091880C8B8F9C8FAD8FBE8F02E515E067
:100A1000A12CB12CD501A759B34F4D01F80120816C
:100A2000318142815381C301B2010E94962E9B0104
:100A3000AC01D4016D917D918D919C910E94462DC8
:100A40006B017C01F80120893189428953896B89C6
:100A50007C898D899E890E94962E9B01AC01C701DD
:100A6000B6010E94462D6B017C01D80190962D9114
:100A70003D914D915C9193976F89788D898D9A8D79
:100A80000E94962E9B01AC01C701B6010E94462D23
:100A90006B017C01F80120A931A942A953A96B8DF2
:100AA0007C8D8D8D9E8D0E94962E9B01AC01C70181
:100AB000B6010E94462DD4016D937D938D939C9336
:100AC0001397B4E0AB0EB11C0C5F1F4FE0E1AE1604
:100AD000B10409F09FCF2091690C30916A0C4091CC
:100AE0006B0C50916C0C6BA17CA18DA19EA10E94FE
:100AF000472D6093D30B7093D40B8093D50B9093B9
:100B0000D60B20919A0330919B0340919C03509106
:100B10009D030E94962E4B015C0120916D0C30913B
:100B20006E0C40916F0C5091700C6F8D78A189A163
:100B30009AA10E94472D6093D70B7093D80B809396
:100B4000D90B9093DA0B20919E0330919F03409133
:100B5000A0035091A1030E94962E2B013C019B0102
:100B6000AC01C501B4010E94472D2091A203309130
:100B7000A3034091A4035091A5030E94962E7B01EC
:100B80008C012090A6033090A703C090A803D090BA
:100B9000A9039101A6010E94922E181684F02090BC
:100BA000AA033090AB03C090AC03D090AD03910189
:100BB000A601B701C8010E94AB2D87FF02C07101D9
:100BC00086012091AE033091AF034091B003509164
:100BD000B103B701C8010E94962E6B017C0160939E
:100BE000890C70938A0C80938B0C90938C0C20E072
:100BF00030E04FE753E40E94AB2D87FF0DC020E0AB
:100C000030E0A901C701B6010E94922E181654F0D7
:100C1000C12CD12C760106C0C12CD12C3FE7E32E8C
:100C200033E4F32EB701A6018091B90B9091BA0B72
:100C3000DDDBA3019201C501B4010E94462D209184
:100C4000B2033091B3034091B4035091B5030E94B5
:100C5000962E7B018C01A090B603B090B703C09094
:100C6000B803D090B9039501A6010E94922E1816E0
:100C700084F0A090BA03B090BB03C090BC03D090A6
:100C8000BD039501A601B701C8010E94AB2D87FFE6
:100C900002C0750186012091BE033091BF034091CF
:100CA000C0035091C103B701C8010E94962E6B0189
:100CB0007C0120E030E04FE753E40E94AB2D87FF3A
:100CC0000DC020E030E0A901C701B6010E94922EBC
:100CD000181654F0C12CD12C760106C0C12CD12C91
:100CE0002FE7E22E23E4F22EB701A6018091D10B6B
:100CF0009091D20B7BDB8091D70B9091D80BA09178
:100D0000D90BB091DA0B8B8F9C8FAD8FBE8F8091FA
:100D1000D30B9091D40BA091D50BB091D60B8F8FA4
:100D200098A3A9A3BAA395E5292E9CE0392EA6EC99
:100D3000B4E0BC8BAB8BEEE9F4E0F88FEF8B00E016
:100D400010E0D1011D921D921D921C92139781E417
:100D5000882E8CE0982EA12CB12CC12CD12C7601A0
:100D6000F40161917191819191914F01F501E00F31
:100D7000F11FE251FB4F20813181428153810E945A
:100D8000962E9B01AC01C701B6010E94472D6B0155
:100D90007C01F4E1AF0EB11C24E6A216B10401F708
:100DA000D1016D937D938D939D931D01F801E552C3
:100DB000F44FFCA3EBA3AB89BC8954962D913D91D4
:100DC0004D915C9157976FA178A589A59AA50E942E
:100DD000962E4B015C01EB89FC8921913191419167
:100DE0005191FC8BEB8B6BA57CA58DA59EA50E94DC
:100DF000962E9B01AC01C501B4010E94472D4B0109
:100E00005C01AF89B88D54962D913D914D915C91C7
:100E100057976B8D7C8D8D8D9E8D0E94962E2B010C
:100E20003C01EF89F88D2191319141915191F88FD9
:100E3000EF8B6F8D78A189A19AA10E94962E9B01BC
:100E4000AC01C301B2010E94472D9B01AC01C70157
:100E5000B6010E94472D9B01AC01C501B4010E945F
:100E6000472DABA1BCA16D937D938D939C9313975C
:100E70000C5F1F4F0431110509F063CF81E090E052
:100E80000E948B1740915A0B50915B0B60915C0B49
:100E900070915D0B80E090E00E9487178090660B58
:100EA0009090670BA090680BB090690B20E030E049
:100EB00040E85FEBC501B4010E94AB2D882331F1FE
:100EC000C0905A0BD0905B0BE0905C0BF0905D0BE8
:100ED000A7019601C501B4010E94462D4B015C019A
:100EE00020E030E040E054E3C701B6010E94962EB6
:100EF0009B01AC01C501B4010E94922E181634F07A
:100F00008DED93E09093450B8093440B80916A0B99
:100F1000882331F08DED93E09093450B8093440B43
:100F200080915E0B90915F0BA091600BB091610B73
:100F3000BC01CD016F5F7F4F8F4F9F4F60935E0B62
:100F400070935F0B8093600B9093610B0E94E02D78
:100F50002091620B3091630B4091640B5091650BB3
:100F60000E94962E60935A0B70935B0B80935C0BE0
:100F700090935D0BE2960FB6F894DEBF0FBECDBF27
:100F8000DF91CF911F910F91FF90EF90DF90CF9065
:100F9000BF90AF909F908F907F906F905F904F9099
:100FA0003F902F9008952F923F924F925F926F92B1
:100FB0007F928F929F92AF92BF92CF92DF92EF92E9
:100FC000FF920F931F93CF93DF9387E2E4E4FBE05C
:100FD000DF011D928A95E9F780E090E0A0E8BFEB81
:100FE0008093660B9093670BA093680BB093690B8B
:100FF0008DEC9CECACECBDE38093620B9093630BA7
:10100000A093640BB093650B8CE898E9ADE3BFE562
:101010008093480B9093490BA0934A0BB0934B0BD2
:1010200082E59AE2A8ECB0EE80934C0B90934D0BC6
:10103000A0934E0BB0934F0B81ED92EBABECBFE85E
:101040008093500B9093510BA093520BB093530B82
:1010500083EE90EFA3EFBBE38093540B9093550B7B
:10106000A093560BB093570B84EF97E09093470BE8
:101070008093460B88EE97E09093F5078093F407F2
:101080008DE994E09093E9078093E8079093EB074C
:101090008093EA079093ED078093EC079093EF0716
:1010A0008093EE079093F1078093F0079093F307F6
:1010B0008093F20788E59BE09093F9078093F80707
:1010C00088E49BE09093F7078093F6078AE59BE01E
:1010D0009093FB078093FA078EE9E1EFFBE0DF01D5
:1010E0001D928A95E9F786E8EBE6FBE0DF011D92A9
:1010F0008A95E9F7E6EDF7E082E1DF011D928A9536
:10110000E9F7F093590BE093580B82E190E090934C
:10111000D7078093D6078EE792E09093D907809304
:10112000D8078AE592E09093DB078093DA0786E29E
:1011300092E09093DD078093DC078AE092E0909341
:10114000DF078093DE0782E3D82ED092710BD3E3C2
:10115000D093720B94E3592E5092730B25E3622EB9
:101160006092740B36E3732E7092750B47E3C42EB6
:10117000C092760B58E3452E4092770B69E3362EEA
:101180003092780BC1E3C093790B70E3272E209245
:101190007A0BC0937B0BC0937C0BC0937D0BD092DA
:1011A0007E0BC0937F0BD093800B8091A602909111
:1011B000A702A091A802B091A9028093830B9093FB
:1011C000840BA093850BB093860B812C912C54013A
:1011D000839480926C0B90926D0BA0926E0BB092E8
:1011E0006F0B60E070E0CB010BD99093820B809382
:1011F000810B20E030E0A90160E070E01CD9B1E093
:10120000B093700BD0928D0BD0938E0B50928F0BAE
:101210006092900B7092910BC092920B4092930B44
:101220003092940BC093950B2092960BC093970B22
:10123000C093980BC093990BD0929A0BC0939B0BC1
:10124000D0939C0B1092870B8091A2029091A302E5
:10125000A091A402B091A50280939F0B9093A00B44
:10126000A093A10BB093A20B10928C0B8092880BD1
:101270009092890BA0928A0BB0928B0B61E070E088
:1012800080E090E0BDD890939E0B80939D0B20E072
:1012900030E0A90160E070E0CED881E080938C0B53
:1012A000D092A90BD093AA0B5092AB0B6092AC0BCF
:1012B0007092AD0BC092AE0B4092AF0B3092B00B60
:1012C000C093B10B2092B20BC093B30BC093B40B7D
:1012D000C093B50BD092B60BC093B70BD093B80B9D
:1012E0001092A30B1092A80B8092A40B9092A50BC6
:1012F000A092A60BB092A70BE12CF12C8701A801BC
:10130000970169E070E080E090E05BD89093BA0BC1
:101310008093B90B6AD8A1E0A093A80BD092C10B1F
:10132000D093C20B5092C30B6092C40B7092C50B4A
:10133000C092C60B4092C70B3092C80BC093C90B2A
:101340002092CA0BC093CB0BC093CC0BC093CD0B98
:10135000D092CE0BC093CF0BD093D00B1092BB0B7F
:101360001092C00B8092BC0B9092BD0BA092BE0B52
:10137000B092BF0BA801970168E070E080E090E0B8
:1013800020D89093D20B8093D10B2FD8B1E0B0939B
:10139000C00B80E090E0FC01E552F44FDC01AE555B
:1013A000BD4F18964D915D916D917C911B97408337
:1013B00051836283738304968431910561F7809130
:1013C000BE029091BF02A091C002B091C102809371
:1013D000D30B9093D40BA093D50BB093D60B8091E5
:1013E000C2029091C302A091C402B091C502809341
:1013F000D70B9093D80BA093D90BB093DA0BDF9156
:10140000CF911F910F91FF90EF90DF90CF90BF9001
:10141000AF909F908F907F906F905F904F903F9094
:101420002F90089580916B0B811103C081E0809310
:101430006B0B8091870B811103C081E08093870B38
:101440008091A30B811107C081E08093A30B83EAF5
:101450009BE00E9427028091BB0B811107C081E0B5
:101460008093BB0B8BEB9BE00C9427020895EF92CB
:10147000FF920F931F93CF93DF93DC01EA01F901F1
:1014800014968D919C91159712960D911C9113971E
:10149000080F191F2881398118964D915C91199771
:1014A0004217530728F04D915C911197452B39F164
:1014B0007801E21AF30A18964D915C911997481B2E
:1014C000590B4E0D5F1D4617570794F1A901460FA2
:1014D000571F40175107E0F0F182E08233832283E7
:1014E0006E197F0975836483161617061CF4382F4E
:1014F000292F02C030E020E03683278313C01896DE
:101500008D919C911997821B930B8617970784F0F6
:10151000718360833383228315821482178216823B
:1015200088819981680F791F7983688380E001C081
:1015300081E0DF91CF911F910F91FF90EF9008957F
:10154000CF92DF92EF92FF92CF93DF936B017C01FA
:1015500084E48C9DE0018D9DD00D1124C050D84FA6
:101560008AA99BA9009721F00E9408301BAA1AAAF9
:1015700084E48C9DF0018D9DF00D1124E050F84F16
:1015800086A997A9009711F00E94083084E48C9DE9
:10159000F0018D9DF00D1124E050F84F138A128A4E
:1015A000168A178A108E118E128E138E148E158E37
:1015B000168E178E10A211A281E090E093A382A351
:1015C00015A214A216A217A210A611A613A612A65F
:1015D00015A614A616A617A610AA11AA13AA12AA2F
:1015E00015AA14AA17AA16AA11AE10AE12AE13AEFF
:1015F00014AE15AEDF01DE961D921D921D921C9257
:101600001397EE5BFF4F11821082DF91CF91FF9015
:10161000EF90DF90CF9008950F931F93CF93DF93B8
:10162000EB01DC018D919C91FC01A681B781E881E1
:10163000F98123E0EE0FFF1F2A95E1F712962D9115
:101640003C911397E20FF31F00811181AC85BD859A
:101650009D01220F331FDC0112968D919C911397EF
:10166000D901A80FB91F8D919C9124813581232B1D
:1016700019F461E070E002C062E070E0689F9001E0
:10168000699F300D789F300D112488859985289F9A
:10169000B001299F700D389F700D1124EC81FD81E0
:1016A0002E9FC0012F9F900D3E9F900D1124800F03
:1016B000911FFA019183808373836283DF91CF91BD
:1016C0001F910F9108952F923F924F925F926F92C8
:1016D0007F928F929F92AF92BF92CF92DF92EF92C2
:1016E000FF920F931F93CF93DF9300D000D0CDB71D
:1016F000DEB7DC011496ED91FC9115970190F08115
:10170000E02D808591859A838983A281B381BC83F2
:10171000AB83FB0181909190A190B1908F01C12C7E
:10172000D12C7601C814D904EA04FB040CF05FC084
:10173000D80114964D905D906D907C9017971896F7
:101740004D915D916D917C911B97F8017096FE8390
:10175000ED83F801A081B18183E0AA0FBB1F8A95B8
:10176000E1F7E981FA8182819381A80FB91F2D9059
:101770003C901197F80124853585220F331F8B810A
:101780009C81280F391FF9010081118114968D91D8
:101790009C911597892B19F481E090E002C082E0BA
:1017A00090E0809F9001819F300D909F300D11241B
:1017B000249F8001259F100D349F100D1124249D1E
:1017C000C001259D900D349D900D1124A8016D81BF
:1017D0007E81820D931D0E94A0308D819E81080F15
:1017E000191F9FEFC91AD90AE90AF90A9BCF269651
:1017F0000FB6F894DEBF0FBECDBFDF91CF911F9122
:101800000F91FF90EF90DF90CF90BF90AF909F909F
:101810008F907F906F905F904F903F902F900895A2
:10182000CF93DF93DB01A953BC4F2C91222369F0A6
:1018300024E4269FF001279FF00D1124E050F84F7B
:10184000EF0119922A95E9F71C9224E4269FF001F2
:10185000279FF00D1124E050F84F14821582168254
:1018600017821186108613861286118A108A1786AF
:101870001686DF91CF9164CE2F923F924F925F9266
:101880006F927F928F929F92AF92BF92CF92DF9290
:10189000EF92FF920F931F93CF93DF93CDB7DEB7F5
:1018A00028970FB6F894DEBF0FBECDBF6B017C0149
:1018B0001A0184E48C9D90018D9D300D11242050DF
:1018C000384FF90184819581A681B781892B8A2BB4
:1018D0008B2B09F4B8C0A12CB12C412C512C320116
:1018E00038872F83C90104969A838983D901189672
:1018F000BC83AB83E981FA8180819181A281B3812C
:10190000481659066A067B0694F5AB81BC81ED91B9
:10191000FC91EA0DFB1D228133818901812C912CE0
:1019200082149304C4F4D801ED91FC91309769F0CE
:10193000848195812D833E830E940830F801808147
:1019400091810E9408303E812D81FFEF8F1A9F0AFE
:101950000E5F1F4FE5CFC9010E9408308FEF481A74
:10196000580A680A780A94E0A90EB11CC3CFAF8167
:10197000B88518968D919C9119970E940830EF8137
:10198000F88582859385892B59F1A12CB12C812C66
:10199000912C84E48C9D80018D9D100D1124065F97
:1019A000174F8214930484F4D801ED91FC91EA0D51
:1019B000FB1D848195810E940830BFEF8B1A9B0A22
:1019C000EEE0AE0EB11CEDCF84E48C9DF0018D9D58
:1019D000F00D1124E050F84F828593850E94083065
:1019E00084E48C9D90018D9D300D1124890100505F
:1019F000184FD80150968D919C9151970E940830B4
:101A0000F801868597850E940830C701B60198DDE8
:101A1000C701B60128960FB6F894DEBF0FBECDBF42
:101A2000DF91CF911F910F91FF90EF90DF90CF90BA
:101A3000BF90AF909F908F907F906F905F904F90EE
:101A40003F902F90EDCE28960FB6F894DEBF0FBED4
:101A5000CDBFDF91CF911F910F91FF90EF90DF905D
:101A6000CF90BF90AF909F908F907F906F905F903E
:101A70004F903F902F90089524E4269FF001279FD8
:101A8000F00D1124E050F84F828993890497029752
:101A900058F485E090E0938B828B8FEF9FEFDC0111
:101AA000828F938FA48FB58F08952F923F924F927C
:101AB0005F926F927F928F929F92AF92BF92CF92DE
:101AC000DF92EF92FF920F931F93CF93DF93CDB7E7
:101AD000DEB7E0970FB6F894DEBF0FBECDBF9AA376
:101AE00089A31B016A012801390184E4849D8001D6
:101AF000859D100D112498012050384F7901D9018E
:101B00004D925D926D927C921397AB01C301B2012D
:101B1000B3DEF801EC5FF74FD6014D915D916D9109
:101B20007D918D01CA01408351836283738364E098
:101B300070E00E94592FF70191878087892B09F463
:101B400099C11E8E1D8E198E1A8E1B8E1C8EF8A2A8
:101B5000EF8E97012C5F3F4F38A72FA32C5F3F4F8D
:101B60003AA729A7EFA1F8A580819181A281B3812D
:101B7000298D3A8D4B8D5C8D281739074A075B07F5
:101B80000CF0E4C0A9A5BAA58D919C912D8D3E8D38
:101B9000280F391F3A8B298BD801ED91FC91EE0F5C
:101BA000FF1FA9A1BAA18D919C91E80FF91F808117
:101BB0009181F90191838083D80114962D913D91F3
:101BC0004D915C9117972BA33CA34DA35EA3085F97
:101BD0001F4F62E070E0C1010E94592FE989FA8924
:101BE00093838283892B09F445C11D8A1E8A1F8A2B
:101BF000188E2D893E894F89588D8BA19CA1ADA14E
:101C0000BEA1281739074A075B070CF08CC0D80122
:101C1000ED90FC90EE0CFF1CE989FA89C280D3801C
:101C2000CE0CDF1C68E070E081E090E00E94592F4C
:101C3000D6018D939C93E989FA8982819381FC0175
:101C4000EE0DFF1DC080D180C114D10409F412C172
:101C5000D80114964D915D916D917C911797CA01B1
:101C6000F6014083518362837383085F1F4F64E0F2
:101C700070E00E94592FD60115969C938E9314976D
:101C8000892B09F4F7C01C8A1B8A812C912C5401E2
:101C9000F60180819181A281B38188169906AA06F6
:101CA000BB06A4F5F601E480F5802B893C89E20EA1
:101CB000F31EF801DE01119680E101900D928A95E4
:101CC000E1F7005F1F4FA701BE016F5F7F4FA9A122
:101CD000BAA114968D919C9115979EDCF6012681F0
:101CE0003781D70112968D919C911397820F931F84
:101CF00097838683BFEF8B1A9B0AAB0ABB0A2B899B
:101D00003C892C5F3F4F3C8B2B8BC2CF2D893E896A
:101D10004F89588D2F5F3F4F4F4F5F4F2D8B3E8B1D
:101D20004F8B588F66CF298D3A8D4B8D5C8D2F5FF1
:101D30003F4F4F4F5F4F298F3A8F4B8F5C8F2D8DC9
:101D40003E8D2C5F3F4F3E8F2D8F0CCF6EE070E0AD
:101D5000C1010E94592FAF8DB8A11B969C938E9301
:101D60001A97812C912CA12CB12CC12CD12C24E4BC
:101D7000249DC001259D900D11249C01265F374FA5
:101D80003A8B298B21E030E0A214B3040CF04AC056
:101D9000D8014D915D916D917D918D01CA01E989C7
:101DA000FA89E080F180E80CF91C57FD63C0D70187
:101DB00011963C932E930097A1F02FA738AB4BA719
:101DC0005CA76DA77EA70E94732FF701958384837C
:101DD0002FA538A94BA55CA56DA57EA5892B31F44F
:101DE00049C0D70115961C921E921497F701538390
:101DF0004283848195819783868391878087138628
:101E0000128681E090E0452B462B472B11F480E0B1
:101E100090E0C80ED91EFFEFAF1ABF0A4EE0840E45
:101E2000911CB2CF84E4849D8001859D100D112406
:101E30000050184FD8011D961C921E921C97C60187
:101E400033E0880F991F3A95E1F70E94732FF8014C
:101E5000918B808B892B71F0C601880F991F0E948E
:101E6000732FD8011F969C938E931E97892B11F088
:101E700080E005C0A101C301B201FEDC81E0E09673
:101E80000FB6F894DEBF0FBECDBFDF91CF911F918B
:101E90000F91FF90EF90DF90CF90BF90AF909F9009
:101EA0008F907F906F905F904F903F902F9008950C
:101EB0002F923F924F925F926F927F928F929F925A
:101EC000AF92BF92CF92DF92EF92FF920F931F9348
:101ED000CF93DF93CDB7DEB768970FB6F894DEBF28
:101EE0000FBECDBF9C8B8B8BDB0149015A0124E4D3
:101EF000289DC001299D900D11249C012050384F30
:101F000079012D913C911197F701358B248BFC01C0
:101F1000EA5EF74F14964D915D916D917C91179704
:101F20004083518362837383FC01E65EF74F18960A
:101F30004D915D916D917C911B974083518362839C
:101F40007383FC01E25EF74F1C964D915D916D919C
:101F50007C911F974083518362837383FC01E25D10
:101F6000F74F50965C91509751964C9151975296DD
:101F70003C91529753962C915397508341833283CF
:101F800023838D010C5E1F4F852F942F1816190681
:101F90000CF068C0880F991F880F991F0E94732F3B
:101FA000D701D3969C938E93D297892B09F4BCC00A
:101FB000212C312C412C512C32019701225D3F4FB5
:101FC0003E8B2D8B2C5F3F4F388F2F8B2E5F3F4FDB
:101FD0003A8B298BB301A2012FEF421A520A620AEF
:101FE000720AED89FE8980819181A281B3814817AF
:101FF00059076A077B074CF5AF89B88DCD90DC9007
:10200000C20CD31CF801DE01119680E101900D9203
:102010008A95E1F7005F1F4FA601BE016F5F7F4FFA
:10202000EB89FC8984819581F7DAA989BA898D9138
:102030009C911197F60122813381820F931F8D931A
:102040009C93F4E02F0E311CC5CFD701D4968D910F
:102050009C91D5970E94732FF70197AB86AB892B84
:1020600009F462C0F80180819181A281B38124E4E6
:10207000289DF001299DF00D1124E050F84FAC018E
:10208000BD014D7F21E030E0452B462B472B11F061
:1020900020E030E033A322A324E4289DF001299D11
:1020A000F00D1124E050F84F0197A109B10921E08A
:1020B00030E00297A105B10510F020E030E035A333
:1020C00024A384E4889DF001899DF00D1124CF01A3
:1020D0008A5D974FD80114964D915D916D917C91D9
:1020E0001797DC014D935D936D937C931397E050AC
:1020F000F84F868D978DA0A1B1A1B7FF10C0B09504
:10210000A095909581959F4FAF4FBF4F82AF93AFF2
:10211000A4AFB5AF168E178E10A211A20AC012AED0
:1021200013AE14AE15AE05C0C501B40109DA81E0E5
:1021300001C080E068960FB6F894DEBF0FBECDBF39
:10214000DF91CF911F910F91FF90EF90DF90CF9093
:10215000BF90AF909F908F907F906F905F904F90C7
:102160003F902F900895CF92DF92EF92FF92CF93FE
:10217000DF931092880824E4269FF001279FF00D3A
:102180001124E050F84F15A614A620E030E0C12C31
:10219000D12CDF011A96C1E0D0E0C416D506D4F4E4
:1021A000ED91FC911197E20FF31FE280F3801E1472
:1021B0001F0454F4E480F580F782E682F186E0861D
:1021C00013861286D183C083EFEFCE1ADE0A225F18
:1021D0003F4FE3CF24E4269FF001279FF00D112409
:1021E000E050F84F13A612A611AE10AEDF01DE9636
:1021F0001D921D921D921C92139782E090E0938B8A
:10220000828BDF91CF91FF90EF90DF90CF90089578
:1022100024E4269FF001279FF00D1124E050F84F91
:10222000138A128A29CB24E4269FF001279FF00D00
:102230001124E050F84F8289938981309105C8F0CC
:102240008530910518F0059769F008958FEF9FEF9D
:10225000DC01828F938FA48FB58F85E090E0938B04
:10226000828B08958FEF9FEFDC01828F938FA48F75
:10227000B58F089524E4249FF001259FF00D1124CB
:10228000E050F84F2EE0AC01249FC001259F900D37
:1022900011240284F385E02DE80FF91F81E080937B
:1022A000880882859385918780874085518526811E
:1022B000378181E090E04217530711F080E090E011
:1022C0009183808308952F923F924F925F926F92F5
:1022D0007F928F929F92AF92BF92CF92DF92EF92B6
:1022E000FF920F931F93CF93DF93CDB7DEB7C25505
:1022F000D1090FB6F894DEBF0FBECDBF21969FAFB8
:102300008EAF21974BA75CA76DA77EA74801590107
:1023100084E4889D8001899D100D1124F801E0500E
:10232000F84F2285338527963FAF2EAF27978289B6
:102330009389029709F060C186A597A5A0A9B1A9C4
:10234000892B8A2B8B2B29F484E090E0938B828B52
:1023500053C18489958921964EAD5FAD2197481769
:10236000590709F049C186A997A99AAB89AB1EAE56
:102370001DAE19AE1AAE1BAE1CAE8F01DF019E96CC
:102380002996BFAFAEAF2997F2962B96FFAFEEAF6F
:102390002B979801285C3F4F2D963FAF2EAF2D977E
:1023A000A8014A5D5F4F2F965FAF4EAF2F97C801D0
:1023B000829661969FAF8EAF61971A976396BFAF73
:1023C000AEAF63972996EEADFFAD299780819181DD
:1023D000A281B38129AD3AAD4BAD5CAD2817390769
:1023E0004A075B070CF0E7C02B96EEADFFAD2B97CD
:1023F000808191812DAD3EAD280F391F3EAB2DABB5
:10240000D90112960D90BC91A02D2396BFAFAEAF0F
:102410002397B695A795B695A7952596BFAFAEAF6E
:1024200025972D96EEADFFAD2D9780819181892B5B
:1024300009F496C02F96AEADBFAD2F97CD90DD902D
:10244000ED90FC9029A83AA8F9010190F081E02DC7
:10245000F8ABEFA718AE1FAA8FA998AD2596AEAD21
:10246000BFAD25978A179B070CF07AC06196AEAD79
:10247000BFAD61978D919C91892B69F1EFA5F8A96A
:102480004080518062807380A7019601C301B20130
:102490000E94922E87FD0BC0A7019601D1016D917C
:1024A0007D918D919C910E94AB2D87FD8CC0A701E1
:1024B0009601C301B2010E94922E181664F4A7017E
:1024C0009601F10160817181828193810E94AB2D1F
:1024D000882309F478C06396AEADBFAD63978D9144
:1024E0009C91892B69F1EFA5F8A940805180628009
:1024F0007380A7019601C301B2010E94AB2D87FF33
:102500000BC0A7019601D1016D917D918D919C9198
:102510000E94922E87FF57C0A7019601C301B20106
:102520000E94AB2D81110CC0A7019601F1016081C1
:102530007181828193810E94922E18160CF443C0FF
:102540002FA938AD2F5F3F4F38AF2FAB34E0230EAC
:10255000311C4FA558A94C5F5F4F58AB4FA77CCF9C
:10256000EDA9FEA96081718123964EAD5FAD2397E1
:1025700089A99AA90E94A03025968EAD9FAD259776
:10258000880F991F880F991F29A93AA9280F391F69
:102590003AAB29AB89AD9AADABADBCAD0196A11DEF
:1025A000B11D89AF9AAFABAFBCAFADADBEAD1496A8
:1025B000BEAFADAF07CF81E090E0D801D9969C9334
:1025C0008E93D89719C084E4889DF001899DF00D01
:1025D0001124E050F84F868D978DA0A1B1A1892BD1
:1025E0008A2B8B2B09F064C284E090E0938B828B62
:1025F00086AD97AD93A782A784E4889DF001899D5D
:10260000F00D1124E050F84F8289938982309105B2
:1026100071F482AD93ADA4ADB5AD181619061A06C6
:102620001B060CF04CC2CC24C394D12C05C00497DB
:1026300009F045C2C12CD12C8EE02196EEADFFAD44
:1026400021978E9F70018F9FF00C112427962EAD3D
:102650003FAD2797E20EF31ED70112964D915C9184
:1026600013974115510509F42AC216968D919C9134
:1026700017979AA789A7FE01319684E1DF011D9281
:102680008A95E9F7898A9A8AAB8ABC8AC114D104EF
:1026900009F457C084E4889DF001899DF00D112450
:1026A000E050F84FDF01DE964D905D906D907C908C
:1026B00082AD93ADA4ADB5AD481659066A067B064A
:1026C00009F03FC0F701648175810084F185E02D38
:1026D00084819581A681B7819C018D8B9E8BAF8B68
:1026E000B88F285F3F4F3E8B2D8BD70118968D9169
:1026F0009C911997280F391F19963C932E93189780
:1027000018968D919C911997460F571F841B950B16
:1027100097FD06C0860F971F19969C938E93189766
:1027200084E4889DF001899DF00D1124E25CF74F4F
:10273000B1E04B1A510861087108408251826282EF
:1027400073829E012B5E3F4FAE01475D5F4F64E198
:1027500070E0C7010E94370A082F10E0011511052B
:1027600009F091C18CE090E0A0E0B0E08D839E8301
:10277000AF83B8879E01235E3F4FAE01475D5F4F39
:1027800064E070E0C7010E94370A082F10E00115CD
:10279000110509F078C180E190E0A0E0B0E08D8300
:1027A0009E83AF83B8874D8D5E8DBE01655D7F4F83
:1027B0008F8D98A10E94A0308BA19CA1009761F001
:1027C0006D8D7E8DEBE2F0E0EC0FFD1F6E0F7F1F35
:1027D00049A15AA10E94A0301DA21EA21FA218A6A4
:1027E00021962EAD3FAD2197220F331F38AF2FAB6F
:1027F00024E4289DC001299D900D11248050984FFC
:10280000AC014C5F5F4F5AAF49AFDC011896BEAFC9
:10281000ADAF2DA13EA14FA158A529AB3AAB4BAB13
:102820005CABE9ADFAAD80819181A281B3812817BB
:1028300039074A075B070CF0CFC0ADADBEADED91D7
:10284000FC9189A99AA9880F991F880F991FE80FF1
:10285000F91FA081B1818C91882309F4AFC0833026
:1028600009F4ACC00280F381E02D2FA938ADE20F4E
:10287000F31F4081518158AB4FA7452B09F49EC0EF
:1028800089859A85AB85BC850196A11DB11D898777
:102890009A87AB87BC879E01235E3F4FAE01475DA1
:1028A0005F4F64E070E0C7010E94370A90E0009734
:1028B00009F0E8C08D819E81AF81B8850496A11D85
:1028C000B11D8D839E83AF83B8874D8D5E8DBE0114
:1028D0006B5D7F4F8F8D98A10E94A0308BA19CA132
:1028E000009761F06D8D7E8DA5E2B0E0AC0FBD1F4D
:1028F0006A0F7B1F49A15AA10E94A0301EAA1DAADF
:10290000412C512C3201EFA5F8A980819181A2813F
:10291000B381481659066A067B060CF04FC0EFA536
:10292000F8A9248035802DA93EA9220E331ED1019D
:1029300012966D917C9113979E01235E3F4FAE01DD
:10294000475D5F4FC7010E94370A90E0009709F08A
:1029500099C0F10182819381092E000CAA0BBB0B57
:102960004D815E816F817885840F951FA61FB71FEB
:102970008D839E83AF83B887608171814D8D5E8D1D
:102980008F8D98A10E94A0308BA19CA1009759F037
:10299000D1016D917C912D8D3E8D620F731F49A1E8
:1029A0005AA10E94A030BFEF4B1A5B0A6B0A7B0A48
:1029B000EDA9FEA93496FEABEDABA5CF49A85AA868
:1029C0006BA87CA8FFEF4F1A5F0A6F0A7F0A4DA21F
:1029D0005EA26FA278A61DCF89859A85AB85BC853E
:1029E000892B8A2B8B2B09F44EC08AE190E0A0E062
:1029F000B0E089839A83AB83BC8321962EAD3FAD33
:102A00002197C901330FAA0BBB0B8D879E87AF8718
:102A1000B88B4D895E89BE016F5F7F4F8F89988D1E
:102A20000E94A0308B8D9C8D009761F06D897E890E
:102A300041E050E04C0F5D1F640F751F498D5A8DAA
:102A40000E94A03089A59AA5D70117969C938E93D2
:102A5000169711961C921E92CD2889F184E4889DC8
:102A6000F001899DF00D1124E25CF74F8081918186
:102A7000A281B3810196A11DB11D80839183A283A0
:102A8000B3831DC08C01CD28D1F4012BC1F084E4A7
:102A9000889DF001899DF00D1124E050F84F81E0F0
:102AA00090E095A784A785E090E0938B828B07C088
:102AB00083E090E0938B828B81E090E09BCDCE5AB7
:102AC000DF4F0FB6F894DEBF0FBECDBFDF91CF91C1
:102AD0001F910F91FF90EF90DF90CF90BF90AF903C
:102AE0009F908F907F906F905F904F903F902F902E
:102AF0000895CF92DF92EF92FF920F931F936B0195
:102B00007C0184E48C9DF0018D9DF00D1124E0503A
:102B1000F84F82899389009709F450C00197B9F45E
:102B200082A593A59C012F5F3F4F33A722A7092EB3
:102B3000000CAA0BBB0B028D138D248D358D8017D5
:102B40009107A207B307D1F5C701B6010CDB84E4F6
:102B50008C9DF0018D9DF00D1124E050F84F82897D
:102B60009389039759F582A593A59C012F5F3F4F49
:102B700033A722A7092E000CAA0BBB0B468D578D3D
:102B800060A171A184179507A607B707BCF086ADB1
:102B900097AD93A782A784E090E0938B828B82AD60
:102BA00093ADA4ADB5AD181619061A061B0634F47C
:102BB000EE5BFF4F81E090E0918380831F910F9146
:102BC000FF90EF90DF90CF90089524E4269FF001CE
:102BD000279FF00D1124E050F84F828993890497C4
:102BE000B1F482A593A5019693A782A7092E000CA4
:102BF000AA0BBB0B46895789608D718D8417950789
:102C0000A607B70721F485E090E0938B828B0895A7
:102C10002F923F924F925F926F927F928F929F92EC
:102C2000AF92BF92CF92DF92EF92FF920F931F93DA
:102C3000CF93DF93CDB7DEB72E970FB6F894DEBFF4
:102C40000FBECDBF49835A836B837C834901442ED9
:102C5000552E24E4249DF001259DF00D1124E05013
:102C6000F84F228833889101245031091586148643
:102C70002230310508F0DDC0DC0111961C921E9255
:102C800013961C921E921297A12CB12C60E070E05A
:102C90009F01265F3F4F38872F837F013CE0E30E83
:102CA000F11CDF015096BA87A9879F01225F3F4F31
:102CB0003C872B87681579050CF06FC0EF81F8858C
:102CC000A081B1819D012A0D3B1D3E872D87D90131
:102CD0002D913C911197232B09F059C018960D9115
:102CE0001C9119971296ED91FC911397FE83ED8339
:102CF00016962D913C911797D7014D915C91DA0171
:102D0000E3E0AA0FBB1FEA95E1F7E985FA85C080E9
:102D1000D180FD01EC0DFD1D440F551FAB85BC8519
:102D2000CD90DC904C0D5D1DDA016D937C93D70145
:102D30004D915C9111974F5F5F4F4D935C9313835F
:102D40000283AD85BE851B963C932E931A9702177E
:102D5000130748F4201B310B318320831582148222
:102D60001782168214C0AD85BE851496CD90DC9076
:102D700015974D815E814C0D5D1D401B510B51839C
:102D800040832C193D0935832483D782C6826F5F27
:102D90007F4FBEE0AB0EB11C8DCF24E4249D80019B
:102DA000259D100D11240050184FF80124853585FC
:102DB000DC0111963C932E934089518913965C93C4
:102DC0004E9312974685578515965C934E931497AC
:102DD000232BA1F5B5E02B16310481F5109288085C
:102DE000828D938DA48DB58DAE014F5F5F4F64E0F2
:102DF00070E08F3F9F4FAF4FBF4F59F480E290E09C
:102E00000E94932469817A818B819C81A40100DADC
:102E100015C08FE190E00E949324D8019B961C92EC
:102E20001E929A9781E090E053969C938E935297CE
:102E300005C0FC0111821082138212822E960FB6F9
:102E4000F894DEBF0FBECDBFDF91CF911F910F91E0
:102E5000FF90EF90DF90CF90BF90AF909F908F90BA
:102E60007F906F905F904F903F902F900895EF92DA
:102E7000FF920F931F93CF93DF937C018B01EA01A5
:102E80000E941625811121C08091C9039091CA0327
:102E9000049711F183E090E09093CA038093C903F3
:102EA0001BC098819111F0CF28ED38EB45E050E040
:102EB00060E070E0CB010E94A027AE01B801C7011D
:102EC0000E94AE27C8010E947927809189089091BD
:102ED0008A08892B31F3D8CFDF91CF911F910F91C1
:102EE000FF90EF900895CF93DF932091C903309125
:102EF000CA032430310541F0EB010E94AE27CE0118
:102F0000DF91CF910C947927DF91CF9108950C94A4
:102F1000C02B0C94B52B0C94A32B0C9489270C94E8
:102F2000472B089560E070E080E090E00C94F1247D
:102F30000895AF92BF92CF92DF92EF92FF920F93DC
:102F40001F93CF93DF931F921F92CDB7DEB75C0123
:102F500069017A018B0180E090E0C114D104E104A1
:102F6000F104F1F0C114D10421E0E206F10410F4FF
:102F7000A60102C04FEF5FEF9E012F5F3F4FB801E8
:102F8000C5010E94632C8F3F2FEF920749F02981E2
:102F90003A81C21AD30AE108F108020F131FDDCFEC
:102FA0000F900F90DF91CF911F910F91FF90EF90B5
:102FB000DF90CF90BF90AF900895089508951F922D
:102FC0000F920FB60F9211240BB60F922F933F93CF
:102FD0004F935F936F937F938F939F93AF93BF9321
:102FE000EF93FF93E091CF03F091D0031995FF91F8
:102FF000EF91BF91AF919F918F917F916F915F9171
:103000004F913F912F910F900BBE0F900FBE0F90DD
:103010001F9018951F920F920FB60F9211240BB6A6
:103020000F922F933F934F935F936F937F938F9361
:103030009F93AF93BF93EF93FF93E091D103F091F0
:10304000D2031995FF91EF91BF91AF919F918F910D
:103050007F916F915F914F913F912F910F900BBE98
:103060000F900FBE0F901F9018951F920F920FB6E2
:103070000F9211240BB60F922F933F934F935F93B0
:103080006F937F938F939F93AF93BF93EF93FF9330
:10309000E091D303F091D4031995FF91EF91BF9183
:1030A000AF919F918F917F916F915F914F913F91E0
:1030B0002F910F900BBE0F900FBE0F901F90189581
:1030C0001F920F920FB60F9211240BB60F922F93EF
:1030D0003F934F935F936F937F938F939F93AF93A0
:1030E000BF93EF93FF93E091D503F091D603199529
:1030F000FF91EF91BF91AF919F918F917F916F91D0
:103100005F914F913F912F910F900BBE0F900FBE8B
:103110000F901F9018951F920F920FB60F921124C7
:103120000BB60F922F933F934F935F936F937F93C1
:103130008F939F93AF93BF93EF93FF93E091CB0354
:10314000F091CC031995FF91EF91BF91AF919F91B1
:103150008F917F916F915F914F913F912F910F9040
:103160000BBE0F900FBE0F901F9018951F920F92DD
:103170000FB60F9211240BB60F922F933F934F93DC
:103180005F936F937F938F939F93AF93BF93EF93CF
:10319000FF93E091CD03F091CE031995FF91EF914C
:1031A000BF91AF919F918F917F916F915F914F915F
:1031B0003F912F910F900BBE0F900FBE0F901F905D
:1031C00018951F920F920FB60F9211240BB60F9203
:1031D0002F933F934F935F936F937F938F939F931F
:1031E000AF93BF93EF93FF93E091D703F091D80390
:1031F0001995FF91EF91BF91AF919F918F917F9121
:103200006F915F914F913F912F910F900BBE0F9057
:103210000FBE0F901F9018951F920F920FB60F922E
:1032200011240BB60F922F933F934F935F936F939D
:103230007F938F939F93AF93BF93EF93FF93E0910F
:10324000D903F091DA031995FF91EF91BF91AF91F6
:103250009F918F917F916F915F914F913F912F91AE
:103260000F900BBE0F900FBE0F901F9018951F92DE
:103270000F920FB60F9211242F933F938F939F932A
:10328000AF93BF9380918C0890918D08A0918E0888
:10329000B0918F0830918B0823E0230F2D3720F455
:1032A0000196A11DB11D05C026E8230F0296A11DA0
:1032B000B11D20938B0880938C0890938D08A09368
:1032C0008E08B0938F088091900890919108A091FA
:1032D0009208B09193080196A11DB11D80939008AA
:1032E00090939108A0939208B0939308BF91AF91E7
:1032F0009F918F913F912F910F900FBE0F901F9034
:1033000018953FB7F8948091900890919108A091FA
:103310009208B091930826B5A89B05C02F3F19F0DD
:103320000196A11DB11D3FBFBA2FA92F982F882745
:10333000820F911DA11DB11DBC01CD0142E0660FA0
:10334000771F881F991F4A95D1F708958F929F92F2
:10335000AF92BF92CF92DF92EF92FF926B017C010E
:10336000D0DF4B015C01C114D104E104F104F1F0A0
:1033700024DEC7DFDC01CB0188199909AA09BB0942
:10338000883E9340A105B10570F321E0C21AD1082F
:10339000E108F10888EE880E83E0981EA11CB11C9C
:1033A000C114D104E104F10421F7DDCFFF90EF90C7
:1033B000DF90CF90BF90AF909F908F9008957894BA
:1033C00084B5826084BD84B5816084BD85B582602A
:1033D00085BD85B5816085BDEEE6F0E080818160C8
:1033E0008083E1E8F0E010828081826080838081C8
:1033F00081608083E0E8F0E0808181608083E1EBA0
:10340000F0E0808184608083E0EBF0E08081816087
:103410008083E1E9F0E08081826080838081816047
:103420008083E0E9F0E0808181608083E1EAF0E080
:10343000808182608083808181608083E0EAF0E027
:10344000808181608083E1E2F1E08081826080831D
:10345000808181608083E0E2F1E08081816080830F
:10346000EAE7F0E0808184608083808182608083ED
:103470008081816080838081806880831092C10018
:103480000895863308F0865390917B00282F28708A
:10349000977F922B90937B0087702091DB0390E4C1
:1034A000299F90011124822B80937C0080917A00C7
:1034B000806480937A0080917A0086FDFCCF8091B1
:1034C00078002091790090E0922B08951F93CF937C
:1034D000DF93182FEB0161E016D1209711F460E023
:1034E00004C0CF3FD10531F461E0812FDF91CF914E
:1034F0001F9145C1E12FF0E0E45BFE4FE4914E2FB8
:1035000050E0FA013197E231F10508F09DC08827BB
:10351000EE58FF4F8F4F0C942E2F84B5806884BDDA
:10352000C7BD97C084B5806284BDC8BD92C080917C
:103530008000806880938000D0938900C0938800C9
:1035400088C080918000806280938000D0938B003F
:10355000C0938A007EC08091800088608093800044
:10356000D0938D00C0938C0074C08091B0008068AF
:103570008093B000C093B3006CC08091B0008062B3
:103580008093B000C093B40064C0809190008068C4
:1035900080939000D0939900C09398005AC0809176
:1035A0009000806280939000D0939B00C0939A001B
:1035B00050C080919000886080939000D0939D00CF
:1035C000C0939C0046C08091A00080688093A000BA
:1035D0008091A0008F7B8093A000D093A900C0931E
:1035E000A80037C08091A00080628093A000D09393
:1035F000AB00C093AA002DC08091A000886080938A
:10360000A000D093AD00C093AC0023C080912001F6
:10361000806880932001D0932901C093280119C0AC
:1036200080912001806280932001D0932B01C09370
:103630002A010FC080912001886080932001D093DF
:103640002D01C0932C0105C0C038D1050CF04CCF22
:1036500046CFDF91CF911F91089590E0FC01319703
:10366000E231F10508F04EC08827EC57FF4F8F4F2D
:103670000C942E2F809180008F7703C08091800062
:103680008F7D80938000089580918000877FF9CF9F
:1036900084B58F7702C084B58F7D84BD08958091F5
:1036A000B0008F7703C08091B0008F7D8093B00011
:1036B0000895809190008F7707C0809190008F7D52
:1036C00003C080919000877F80939000089580913F
:1036D000A0008F7707C08091A0008F7D03C08091EC
:1036E000A000877F8093A0000895809120018F77AC
:1036F00007C0809120018F7D03C080912001877FCA
:10370000809320010895CF93DF9390E0FC01EE5663
:10371000FE4F2491FC01E852FE4F8491882361F111
:1037200090E0880F991FFC01E85CFD4FC591D49192
:10373000FC01E25EFD4FA591B491611109C09FB7F4
:10374000F8948881209582238883EC912E230BC0E6
:10375000623061F49FB7F8943881822F809583237B
:103760008883EC912E2B2C939FBF06C08FB7F894C3
:10377000E8812E2B28838FBFDF91CF9108951F936F
:10378000CF93DF93282F30E0F901E45BFE4F849163
:10379000F901EE56FE4FD491F901E852FE4FC49163
:1037A000CC23C1F0162F811158DFEC2FF0E0EE0F83
:1037B000FF1FE25EFD4FA591B4918FB7F8941111F0
:1037C00005C09C91ED2FE095E92302C0EC91ED2B13
:1037D000EC938FBFDF91CF911F910895FC01918DE4
:1037E000228D892F90E0805C9F4F821B91098F73FF
:1037F00099270895FC01918D828D981731F0828D63
:10380000E80FF11D858D90E008958FEF9FEF0895EB
:10381000FC01918D828D981761F0828DDF01A80FD8
:10382000B11D5D968C91928D9F5F9F73928F90E0FA
:1038300008958FEF9FEF0895FC01848DDF01A80F9D
:10384000B11DA35ABF4F2C91848D90E001968F73C8
:103850009927848FA689B7892C93A089B1898C91E7
:1038600080648C93938D848D981306C00288F389AD
:10387000E02D80818F7D80830895CF93DF93EC01CD
:10388000888D8823C1F0EA89FB89808185FD05C088
:10389000A889B9898C9186FD0EC00FB607FCF5CFBB
:1038A000808185FFF2CFA889B9898C9185FFEDCF02
:1038B000CE01C2DFE8CFDF91CF910895EF92FF9262
:1038C0000F931F93CF93DF93EC0181E0888F9B8D43
:1038D0008C8D981305C0E889F989808185FD23C006
:1038E000F62E0B8D10E00F5F1F4F0F731127E02E88
:1038F0008C8DE8120BC00FB607FCFACFE889F98966
:10390000808185FFF5CFCE0197DFF2CF8B8DFE0151
:10391000E80FF11DE35AFF4FF0820B8FEA89FB8914
:103920008081806207C0EE89FF896083E889F98918
:1039300080818064808381E090E0DF91CF911F914E
:103940000F91FF90EF900895CF92DF92EF92FF9248
:103950001F93CF93DF93EC016A017B01122FE8895B
:10396000F98982E080834115514E61057105B1F0FE
:1039700060E079E08DE390E0A70196010E940C2FB2
:10398000DA01C9010197A109B109B695A7959795E3
:103990008795AC01411580E15807A8F0E889F989BD
:1039A000108260E874E88EE190E0A70196010E9421
:1039B0000C2FBA01A901415051096109710976958D
:1039C000679557954795EC85FD855083EE85FF8576
:1039D0004083188EEC89FD891083EA89FB898081F8
:1039E00080618083EA89FB89808188608083EA899D
:1039F000FB89808180688083EA89FB8980818F7D53
:103A00008083DF91CF911F91FF90EF90DF90CF9057
:103A100008951F920F920FB60F9211240BB60F92BA
:103A20002F938F939F93EF93FF93E091A408F091CE
:103A3000A5088081E091AA08F091AB0882FD12C030
:103A400090818091AD088F5F8F732091AE088217AF
:103A500051F0E091AD08F0E0EC56F74F958F809370
:103A6000AD0801C08081FF91EF919F918F912F91BF
:103A70000F900BBE0F900FBE0F901F9018951F92C6
:103A80000F920FB60F9211240BB60F922F933F9304
:103A90004F935F936F937F938F939F93AF93BF9356
:103AA000EF93FF9384E998E0C7DEFF91EF91BF9118
:103AB000AF919F918F917F916F915F914F913F91C6
:103AC0002F910F900BBE0F900FBE0F901F90189567
:103AD000E4E9F8E01382128288EE93E0A0E0B0E01F
:103AE00084839583A683B7838AE797E09183808355
:103AF00085EC90E09587848784EC90E097878687B3
:103B000080EC90E0918B808B81EC90E0938B828BAA
:103B100082EC90E0958B848B86EC90E0978B868B83
:103B2000118E128E138E148E08951F920F920FB65F
:103B30000F9211240BB60F922F938F939F93EF93B5
:103B4000FF93E0914109F09142098081E09147099A
:103B5000F091480982FD12C0908180914A098F5FDF
:103B60008F7320914B09821751F0E0914A09F0E0E0
:103B7000EF5CF64F958F80934A0901C08081FF91D9
:103B8000EF919F918F912F910F900BBE0F900FBED1
:103B90000F901F9018951F920F920FB60F9211243D
:103BA0000BB60F922F933F934F935F936F937F9337
:103BB0008F939F93AF93BF93EF93FF9381E399E02C
:103BC0003BDEFF91EF91BF91AF919F918F917F91DC
:103BD0006F915F914F913F912F910F900BBE0F907E
:103BE0000FBE0F901F901895E1E3F9E01382128247
:103BF00088EE93E0A0E0B0E084839583A683B7834A
:103C00008AE797E0918380838DEC90E095878487A5
:103C10008CEC90E09787868788EC90E0918B808B86
:103C200089EC90E0938B828B8AEC90E0958B848B6F
:103C30008EEC90E0978B868B118E128E138E148EE5
:103C400008951F920F920FB60F9211240BB60F9288
:103C50002F938F939F93EF93FF93E091DE09F09161
:103C6000DF098081E091E409F091E50982FD12C04D
:103C700090818091E7098F5F8F732091E809821707
:103C800051F0E091E709F0E0E253F64F958F809311
:103C9000E70901C08081FF91EF919F918F912F9152
:103CA0000F900BBE0F900FBE0F901F9018951F9294
:103CB0000F920FB60F9211240BB60F922F933F93D2
:103CC0004F935F936F937F938F939F93AF93BF9324
:103CD000EF93FF938EEC99E0AFDDFF91EF91BF91F1
:103CE000AF919F918F917F916F915F914F913F9194
:103CF0002F910F900BBE0F900FBE0F901F90189535
:103D0000EEECF9E01382128288EE93E0A0E0B0E0DE
:103D100084839583A683B7838AE797E09183808322
:103D200085ED90E09587848784ED90E0978786877E
:103D300080ED90E0918B808B81ED90E0938B828B76
:103D400082ED90E0958B848B86ED90E0978B868B4F
:103D5000118E128E138E148E08951F920F920FB62D
:103D60000F9211240BB60F922F938F939F93EF9383
:103D7000FF93E0917B0AF0917C0A8081E091810AB7
:103D8000F091820A82FD12C090818091840A8F5F37
:103D90008F732091850A821751F0E091840AF0E038
:103DA000E559F54F958F8093840A01C08081FF917A
:103DB000EF919F918F912F910F900BBE0F900FBE9F
:103DC0000F901F9018951F920F920FB60F9211240B
:103DD0000BB60F922F933F934F935F936F937F9305
:103DE0008F939F93AF93BF93EF93FF938BE69AE0EC
:103DF00023DDFF91EF91BF91AF919F918F917F91C3
:103E00006F915F914F913F912F910F900BBE0F904B
:103E10000FBE0F901F901895EBE6FAE01382128206
:103E200088EE93E0A0E0B0E084839583A683B78317
:103E30008AE797E09183808385E391E09587848783
:103E400084E391E09787868780E391E0918B808B74
:103E500081E391E0938B828B82E391E0958B848B5D
:103E600086E391E0978B868B118E128E138E148EC3
:103E700008958F929F92AF92BF92CF92DF92EF926E
:103E8000FF920F931F93CF93DF937C018B016C0103
:103E900082E0C80ED11C4701E5E08E0E911CC0E007
:103EA000D0E0F60161916F014AE050E0C801C6D050
:103EB0005C016EE2C80167D08A0D9B1DC80FD91F37
:103EC000C814D90471F74AE050E0F7016581C801D0
:103ED000B5D08C0F9D1FDF91CF911F910F91FF9057
:103EE000EF90DF90CF90BF90AF909F908F9008950C
:103EF000E8E0FBE08AE897E09183808312821382F6
:103F0000148215820895CF92DF92EF92FF920F9361
:103F10001F93CF93DF936C017A018B01C0E0D0E057
:103F2000CE15DF0589F0D8016D918D01D601ED9197
:103F3000FC910190F081E02DC6011995892B11F4B7
:103F40007E0102C02196ECCFC701DF91CF911F9176
:103F50000F91FF90EF90DF90CF900895611571055C
:103F600079F0FB0101900020E9F73197AF01461B82
:103F7000570BDC01ED91FC910280F381E02D199447
:103F800080E090E00895DC01ED91FC910190F081DA
:103F9000E02D19944F925F926F927F92EF92FF9271
:103FA0000F931F93CF93DF93CDB7DEB7A1970FB6D3
:103FB000F894DEBF0FBECDBF7C01FA01CB0119A280
:103FC000223008F42AE08E010F5D1F4F422E512C43
:103FD000612C712CBF01A30192010E940C2FF901E9
:103FE000CA01015011096A3014F4605D01C0695CB6
:103FF000D8016C93232B242B252B61F7B801C70123
:10400000ADDFA1960FB6F894DEBF0FBECDBFDF9136
:10401000CF911F910F91FF90EF907F906F905F90E5
:104020004F9008952115310541F4DC01ED91FC918B
:104030000190F081E02D642F1994ACCF9A01462FA6
:1040400050E060E070E0EECF8230A9F028F48823E1
:1040500049F0813051F00895843021F1E8F0853045
:1040600039F1089510926E00089580916F008D7F50
:1040700080936F000895809170008D7F8093700011
:1040800081E08093B0008091B100887F846080934C
:10409000B1001092B3000895809171008D7F8093DC
:1040A00071000895809172008D7F80937200089551
:1040B000809173008D7F809373000895CF93C82FF4
:1040C0008091DC038C1307C0E2E5F2E0E4918FEF0E
:1040D0008093DC0301C0EFEF8E2FB6DF60E08C2F02
:1040E000CF914DCB1F920F920FB60F9211240BB6AA
:1040F0000F922F933F934F935F936F937F938F9381
:104100009F93AF93BF93EF93FF938091110B909187
:10411000120BA091130BB091140B892B8A2B8B2BB4
:1041200051F180910E0BE0910F0BF091100B9081EB
:10413000892780838091110B9091120BA091130B12
:10414000B091140B181619061A061B06BCF48091C0
:10415000110B9091120BA091130BB091140B0197BE
:10416000A109B1098093110B9093120BA093130B2B
:10417000B093140B03C08091DC03A0DFFF91EF919B
:10418000BF91AF919F918F917F916F915F914F916F
:104190003F912F910F900BBE0F900FBE0F901F906D
:1041A000189540E855E260E070E080E090E000C0E3
:1041B0008130910571F01CF4892B39F0089582301B
:1041C000910559F0039769F0089526E084E998E095
:1041D0000BC026E081E399E007C026E08EEC99E071
:1041E00003C026E08BE69AE0AFCB1F920F920FB68A
:1041F0000F9211240BB60F922F933F934F935F931F
:104200006F937F938F939F93AF93BF93EF93FF939E
:1042100086E997EE90932501809324010E949D2CBE
:10422000FF91EF91BF91AF919F918F917F916F918E
:104230005F914F913F912F910F900BBE0F900FBE4A
:104240000F901F90189586E997EE90932501809323
:104250002401A3E7B0E08C918E7F8C93E0E2F1E043
:1042600080818C7F8083E1E2F1E08081877E8083A2
:1042700080818460808380818C7F80838C91816049
:104280008C930895E3E7F0E080818E7F808308952A
:1042900081E008956F927F928F929F92AF92BF922A
:1042A000CF92DF92EF92FF920F931F93CF93DF9302
:1042B0005C017B014A0101E010E00E151F0564F569
:1042C00068018FEFC81AD80AE801CC0FDD1FC80DAE
:1042D000D91D6880798061147104E1F06CE877E0A1
:1042E000C3010E94B030892B19F41982188212C0C0
:1042F0006FE877E0C3010E94B030892B59F4CE14E7
:10430000DF0441F06801E2E0CE0ED11C1982188270
:104310001B821A828601D1CF81E0F5018083B4012E
:10432000C7010E94ED2BF5019283818380E090E02C
:10433000DF91CF911F910F91FF90EF90DF90CF9081
:10434000BF90AF909F908F907F906F90089585E180
:104350009BE0089580E008950F931F93CF93DF9320
:104360008B01BA01E901198218829801012E000C13
:10437000440B550BFC01818192810E949917019693
:1043800021F01983088380E001C081E0DF91CF91A3
:104390001F910F9108950F931F93CF93DF931F9257
:1043A0001F92CDB7DEB7FB018A01B9019E012F5FD5
:1043B0003F4FAF01FC01818192810E94042C019644
:1043C00039F089819A81F8019183808380E001C06E
:1043D00081E00F900F90DF91CF911F910F91089581
:1043E000FC01808108950895089581E0FB01808398
:1043F00080E00895089510923F0B0895FC0181819B
:1044000092810C94E22BCF93DF93CDB7DEB72A973E
:104410000FB6F894DEBF0FBECDBFAC01CB0160E09C
:1044200070E049835A836B837C83092E000CAA0BAE
:10443000BB0B8D839E83AF83B8879E01275F3F4F61
:10444000AE014F5F5F4F68E070E080912E0B90915E
:104450002F0B82DF811108C081E029853A85283041
:10446000310519F480E001C081E02A960FB6F89476
:10447000DEBF0FBECDBFDF91CF9108950F931F9385
:10448000CF93DF931F921F92CDB7DEB78B019E01B2
:104490002F5F3F4FAC0180912E0B90912F0B5CDF73
:1044A000811108C081E029813A812017310719F470
:1044B00080E001C081E00F900F90DF91CF911F91BC
:1044C0000F910895CF93DF93EC011092320B10926D
:1044D000310B10923E0B10923D0BAC0160E070E08E
:1044E000CB010E940811AE0161E070E080E090E035
:1044F0000E94081180912E0B90912F0BDF91CF918C
:1045000079CF4F925F926F927F928F929F92AF92EC
:10451000BF92CF92DF92EF92FF920F931F93CF93B0
:10452000DF931F921F92CDB7DEB79C016C0197FFFE
:1045300003C087E0C80ED11C43E0D594C7944A95C8
:10454000E1F7C90168E070E00E94F92E7C01890161
:104550000E5F1F4F80912C0B90912D0B80179107B0
:104560000CF0DCC080912A0B90912B0B009731F05E
:104570000E94083010922D0B10922C0BC8010E9443
:10458000732F90932B0B80932A0B892B29F0109378
:104590002D0B00932C0BC2C0A12CB12CAC14BD046C
:1045A0000CF05EC0412C512C320100E010E098016B
:1045B0002D5C344FAE014F5F5F4F61E070E0809142
:1045C0002E0B90912F0BE7DE811198C189819A8182
:1045D0002FEF421A520A620A720A20E942162FE5A8
:1045E000520621E0620671043CF060913D0B70912F
:1045F0003E0B8DEE90E02DC0080F191F0A301105FB
:1046000051F549E050E060E070E083E39BE00E94F8
:104610008F2C60913D0B70913E0B8823C1F08091EF
:104620003B0B90E06817790709F0B8CF8EEE90E069
:10463000EADE80913D0B90913E0B01969927909375
:104640003E0B80933D0B8FEFA81AB80AA7CF8FEED1
:1046500090E0D9DEA7CF0A3011050CF4A8CF9ECF89
:10466000EF2809F44BC1C12CD12C760100E010E0F9
:1046700098012D5C344FAE014F5F5F4F61E070E0F9
:1046800080912E0B90912F0B86DE811137C189818D
:104690009A812FEFC21AD20AE20AF20A20E9C21660
:1046A0002FE5D20621E0E206F1043CF060913D0BDB
:1046B00070913E0B8DEE90E02AC0080F191F0A3052
:1046C000110539F549E050E060E070E083E39BE0DC
:1046D0000E948F2C60913D0B70913E0B8823A9F0B6
:1046E00080913B0B90E06817790709F007C18EEEC7
:1046F00090E089DE80913D0B90913E0B01969927C9
:1047000090933E0B80933D0BF9C08FEE90E07BDEE3
:10471000AACF0A3011050CF4ABCFF0C000E010E0D6
:104720000C151D050CF077C0412C512C3201A12C29
:10473000B12C480193E0880C991C9A95E1F72091DF
:104740002A0B30912B0BC4018A0D9B1D280F391F9A
:10475000AE014F5F5F4F61E070E080912E0B909152
:104760002F0B19DE8111CAC089819A812FEF421A5D
:10477000520A620A720A20E942162FE5520621E027
:10478000620671043CF060913D0B70913E0B8DEE22
:1047900090E034C0A80EB91E8AE0A816B104A9F5AD
:1047A00049E050E0B40180912A0B90912B0B0E94BC
:1047B0008F2C60913D0B70913E0B8823E9F0809126
:1047C0002A0B90912B0BFC01E80DF91D808590E0E0
:1047D0006817790709F0A4CF8EEE90E014DE80917F
:1047E0003D0B90913E0B0196992790933E0B809341
:1047F0003D0B0F5F1F4F94CF8FEE90E004DE412CF6
:10480000512C3201A12CB12C9ACF2AE0A216B1046E
:104810000CF495CF85CFE114F10409F46AC0680166
:1048200083E0CC0CDD1C8A95E1F7812C912C54019E
:1048300000E010E098012D5C344FAE014F5F5F4FF8
:1048400061E070E080912E0B90912F0BA4DD81111F
:1048500055C089819A812FEF821A920AA20AB20A60
:1048600020E982162FE5920621E0A206B1043CF071
:1048700060913D0B70913E0B8DEE90E034C0080FBF
:10488000191F0A30110589F549E050E060E070E039
:1048900083E39BE00E948F2C60913D0B70913E0B57
:1048A0008823F9F080913B0B90E06817790709F5B0
:1048B0008EEE90E0A8DD80912A0B90912B0BA70142
:1048C00063E37BE08C0D9D1D0E94A03080913D0B29
:1048D00090913E0B0196992790933E0B80933D0B50
:1048E00008C08FEE90E08FDDA0CF0A3011050CF4E8
:1048F000A1CF80912A0B90912B0B02C080E090E019
:104900000F900F90DF91CF911F910F91FF90EF903B
:10491000DF90CF90BF90AF909F908F907F906F90DF
:104920005F904F900895CF92DF92EF92FF920F9396
:104930001F93CF93DF931F92CDB7DEB76C017B013E
:104940008A01452B31F0AB0160E070E0C801E3D78C
:104950008983B701C60157DD81110DC0011511050D
:1049600051F0B701C8018ADD811105C061E070E036
:10497000CE01019683DD0F90DF91CF911F910F91B2
:10498000FF90EF90DF90CF900895CF92DF92EF925B
:10499000FF92CF93DF93CDB7DEB728970FB6F89489
:1049A000DEBF0FBECDBF6B01E12CF12CC982DA82D4
:1049B000EB82FC822D833E834F835887AE014F5F8D
:1049C0005F4F68E070E0AFDF28960FB6F894DEBF67
:1049D0000FBECDBFDF91CF91FF90EF90DF90CF90D2
:1049E00008950F931F93CF93DF93EC018B01AFDCFE
:1049F00090932F0B80932E0B009739F0A801BE01E6
:104A000049DCEC01892B19F40BC0CBE9D7E080918C
:104A10002E0B90912F0BE7DC10922F0B10922E0B88
:104A2000CE01DF91CF911F910F91089580912E0BB0
:104A300090912F0BD5CC2F923F924F925F926F9215
:104A40007F928F929F92AF92BF92CF92DF92EF921E
:104A5000FF920F931F93CF93DF93CDB7DEB7699784
:104A60000FB6F894DEBF0FBECDBF2091320B2223CC
:104A700009F426C25D8B4C8B688B798B8A8B9B8B60
:104A80009A01AB01BC01CE0101960E94081610E00C
:104A900038E0232E312C89819A81181619060CF0E2
:104AA0000AC21F861E861D861C8689819A81AC8556
:104AB000BD85A817B9070CF0F3C1EB81FC812E85E9
:104AC0003F85E20FF31F208131813093290B209322
:104AD000280B848195819093270B8093260B42812C
:104AE00053815093250B4093240B4681578150935B
:104AF000230B4093220B820F931F9C01990F440BB1
:104B0000550B2E8B3F8B488F598FC12CD12C7601A2
:104B10002E893F89488D598DC216D306E406F506C5
:104B200008F0A2C11F826091280B7091290B8B01A4
:104B3000072E000C220B330BD701C6010496A11DD2
:104B4000B11D80179107A207B30728F4E091240B49
:104B5000F091250B0AC0E4E0F0E0E61BF70BEC0D4A
:104B6000FD1D8091220B9091230BE80FF91F4080CF
:104B7000512C612C712CD701C6010596A11DB11DC8
:104B800080179107A207B30728F4E091240BF09156
:104B9000250B0AC0E5E0F0E0E61BF70BEC0DFD1D70
:104BA0008091220B9091230BE80FF91F8081582AE6
:104BB000D701C6010696A11DB11D80179107A20756
:104BC000B30728F4E091240BF091250B0AC0E6E02E
:104BD000F0E0E61BF70BEC0DFD1D8091220B909190
:104BE000230BE80FF91F8081682AD701C6010796B9
:104BF000A11DB11D80179107A207B30728F4E0910A
:104C0000240BF091250B0AC0E7E0F0E0E61BF70B60
:104C1000EC0DFD1D8091220B9091230BE80FF91FE5
:104C20008081782A4601570148E0840E911CA11C1E
:104C3000B11C081519052A053B0508F4B4C0C016B7
:104C4000D106E206F30638F48091240B9091250BEF
:104C50008C0D9D1D09C0C601861B970B2091220B50
:104C60003091230B820F931F68E070E007DCE09126
:104C7000280BF091290B9F010F2E000C440B550BB4
:104C8000D301C201880D991DAA1DBB1D2817390724
:104C90004A075B07C8F082169306A406B50638F4E7
:104CA0002091240B3091250BC601089609C0C10143
:104CB0008E1B9F0B8C0D9D1D2091220B3091230B81
:104CC000820F931FB20199C08601BF01685071091C
:104CD0006C197D0982169306A406B50638F4209156
:104CE000240B3091250BC601089609C0C1018E1B0B
:104CF0009F0B8C0D9D1D2091220B3091230B820F59
:104D0000931FBCDB8091280B9091290BB101681B8C
:104D1000790B600F711F640D751D8091220B9091AE
:104D2000230BACDB8091280B9091290BAC014850F0
:104D30005109FA01E01BF10BAC01092E000C660BC6
:104D4000770B84169506A606B70638F42091240B37
:104D50003091250BC60108960AC09101281B390B1A
:104D6000C9018C0D9D1D2091220B3091230B820FC8
:104D7000931FAF0160E070E0CED58F832091280BA8
:104D80003091290BA101421B530B9A01200F311FB7
:104D9000240D351D40E050E0682F8091220B90914A
:104DA000230BA5D550C0C016D106E206F306C8F401
:104DB0006C197D098091240B9091250B8C0D9D1D04
:104DC0005DDB8091280B9091290BB101681B790B59
:104DD0006C0D7D1D640D751D8091220B9091230B30
:104DE0000CC0C601861B970B2091220B3091230B20
:104DF000B201685F7F4F820F931F40DB8091280BC9
:104E00009091290BAC01092E000C660B770B8416D0
:104E10009506A606B70638F42091240B3091250B91
:104E2000C60108960AC0D101A81BB90BCD018C0D93
:104E30009D1D2091220B3091230B820F931FA20105
:104E400060E070E068D58F8361E070E0CE01079686
:104E500015DB182FB8E04B0E511C611C711CC40CE3
:104E6000D51CE61CF71C54CE8C859D85880F991F98
:104E7000ED81FE81E80FF91F488959896A897B898C
:104E8000808191810E943A114C855D854F5F5F4F13
:104E90005D874C878E859F8508969F878E8705CE78
:104EA0002C893D89488959896A897B89CE01019677
:104EB0000E940816F0CD112319F08C899D8902DB20
:104EC00069960FB6F894DEBF0FBECDBFDF91CF91CC
:104ED0001F910F91FF90EF90DF90CF90BF90AF9018
:104EE0009F908F907F906F905F904F903F902F900A
:104EF0000895CF93DF93EC01AC0160E070E0CB014B
:104F00009ADDAE0161E070E080E090E0DF91CF914A
:104F100092CDCF9380912E0B90912F0B1BDAC82F3F
:104F200081110BC060E070E0CB010E94100C61E0C9
:104F300070E080E090E00E94100C8C2FCF910895DB
:104F40000F931F9389019A01AB01BC0180912E0B35
:104F500090912F0B49DA1F910F9108953F924F9234
:104F60005F926F927F928F929F92AF92BF92CF92F9
:104F7000DF92EF92FF920F931F93CF93DF93CDB702
:104F8000DEB767970FB6F894DEBF0FBECDBF6C01DA
:104F90007B015A018091320B882331F08091320BD2
:104FA000882309F45CC30AC062E37BE080912E0B86
:104FB00090912F0B1ADA811152C3F0CF8091310BEF
:104FC0001A821982882309F46AC0E0E94E2EEFE5BF
:104FD0005E2E66246394712C00E010E09801285E38
:104FE000344FAE014F5F5F4F61E070E080912E0B58
:104FF00090912F0BD0D9982E81114DC089819A8123
:10500000080F191F0115110509F445C081E0481A60
:1050100051086108710839F460913D0B70913E0BA5
:105020008DEE90E030C00A30110589F549E050E07E
:1050300060E070E088E19BE072D460913D0B70917C
:105040003E0B8823F1F08091200B90E068177907E0
:10505000D9F48EEE90E0D7D988E0E8E1FBE0DE01FC
:10506000199601900D928A95E1F720913D0B3091B0
:105070003E0B2F5F3F4F332730933E0B20933D0B6A
:105080000AC08FEE90E0BFD91A82198204C00A309C
:1050900011050CF4A3CF81E029813A8124C000E0FE
:1050A00010E078E0672E712C29E030E02C0F3D1FD6
:1050B000200F311FAE014F5F5F4FB301601B710BBB
:1050C00080912E0B90912F0B66D9982E29813A81D1
:1050D000811108C0020F131F0115110519F00830C6
:1050E000110514F381E0121613060CF080E0911004
:1050F000B3C2882309F4B3C28091310B811104C07B
:1051000019861A861B861C8689859A85AB85BC857F
:105110008031910508F0A3C2FC018827EA56FF4FB1
:105120008F4F9CC6D6011696ED91FC911797808102
:105130009181A281B38189839A83AB83BC83AE01C1
:105140004F5F5F4F64E070E085E190E07DC18D8549
:105150009E85D7D9009731F42FEF3FEFA90161E089
:1051600070E00EC0FC0180809180A280B380A70116
:10517000C501B4010E94B310A501940160E070E084
:105180008DE190E067C28D859E85BBD9009721F4A3
:105190002FEF3FEFA90110C0DC018D909D90AD90E5
:1051A000BD90AD0195018401B701C6010E94550D66
:1051B000A5019401882319F061E070E002C060E06D
:1051C00070E08BE190E046C28D859E859AD900976C
:1051D00021F42FEF3FEFA9010FC0FC0181909190C6
:1051E000A190B190BF01A5019401C6010E94580F82
:1051F000A5019401882319F061E070E002C060E02D
:1052000070E08CE190E026C2D6011496ED91FC91FD
:10521000159700811181F80182809380A080B18070
:1052200060E1462E512C612C712C49825A826B828E
:105230007C8288E090E0A0E0B0E08D839E83AF8325
:10524000B8879E012F5E3F4FAE014F5F5F4F68E012
:1052500070E080912E0B90912F0B7ED8882319F04F
:1052600000E010E0BAC089899A890897C9F7D80187
:10527000ED90FC90B8E0EB0EF11CEE0CFF1CEE0C78
:10528000FF1CC70130D68C01892B51F349825A8209
:105290006B827C82C7010F2C000CAA0BBB0B8D8389
:1052A0009E83AF83B8879E012F5E3F4FAE014F5F55
:1052B0005F4F68E070E080912E0B90912F0B4CD8DF
:1052C00081118BC089899A89089709F086C0D60117
:1052D0001296ED91FC911397408151816281738107
:1052E000D8014D935D936D937C93139744815581C1
:1052F0006681778114964D935D936D937C93179798
:10530000408551856285738518964D935D936D93A5
:105310007C931B9784859585A685B785F80184873E
:105320009587A687B787108A118A128A138A84E024
:1053300090E0A0E0B0E0848B958BA68BB78B80913A
:10534000C9039091CA03A0E0B0E0808F918FA28F33
:10535000B38FC5010B2C000CAA0BBB0B848F958F50
:10536000A68FB78FF401D801909680E090E08A155F
:105370009B0554F44191519160E070E04D935D9331
:105380006D937D930196F3CF9E012F5E3F4FA80151
:10539000B70180912E0B90912F0B0E94AC218111AF
:1053A0001CC089899A898E159F05B9F4A70160E010
:1053B00070E0C801B0D28B8B9E012F5E3F4FAE01D3
:1053C0004D5E5F4F61E070E080912E0B90912F0B4E
:1053D0000E94AC2181E08093310BC80167960FB623
:1053E000F894DEBF0FBECDBFDF91CF911F910F911B
:1053F000FF90EF90DF90CF90BF90AF909F908F90F5
:105400007F906F905F904F903F9002C68D859E85F4
:10541000AF85B8890097A105B10521F481E080939B
:10542000300B1DC16ED8009789F481E090E0A0E0B8
:10543000B0E089839A83AB83BC83AE014F5F5F4F3B
:1054400064E070E082E190E06EDA09C1BC01C6015F
:105450000E94630B19821A821B821C82AE014F5F6D
:105460005F4F64E070E082E190E05DDA8111F7C0A7
:10547000D5CFD6011496ED91FC9115970190F0814E
:10548000E02D008511858FEF89830115110509F441
:1054900072C0D8016D907C90A280B38020E030E093
:1054A00060E070E080E090E0861597050CF5F8016B
:1054B000A281B381A20FB31F1296ED91FC911397B5
:1054C000EE0FFF1FEA0DFB1D0190F081E02D1696F7
:1054D0000D90BC91A02DEA9FA001EB9F500DFA9F6B
:1054E000500D1124640F751F0196285F3F4FDCCFCC
:1054F00083E190E00E9403228111B1C0C12CD12C24
:10550000E12CF12CE614F7047CF5D8011296ED910C
:10551000FC911397EC0DFD1D80809180A281B381D9
:10552000AA0FBB1FAA0DBB1D2D913C9186819781AF
:10553000289F2001299F500C389F500C1124B20144
:10554000C4010E943E22382E920140E050E0698161
:10555000C401CDD18983B8E0CB0ED11C31107FC0FE
:10556000EFEFEE1AFE0ACECF61E070E0CE010196B9
:105570000E943E2274C060E070E083E190E00E94EF
:1055800003226DC040E050E060E070E081E190E017
:10559000CAD9811164C0812C912C5401C501B40178
:1055A0000E943C0D80918808882321F0A701C50145
:1055B000B40141DAA701C501B4010E943C0C8A94F0
:1055C00089288A288B2829F0812C912C54018394D6
:1055D000E5CF1092320B1092310B10923E0B1092CD
:1055E0003D0B80912E0B90912F0B0E94FB2137C019
:1055F00081E090E090938A088093890840E050E031
:1056000060E070E086E190E01FCF81E0D5018C93EF
:1056100026C08D859E850E948122009731F42FEF50
:105620003FEFA90161E070E013C0FC0120813181EE
:1056300042815381CA01B9012C8B3D8B4E8B5F8B0C
:105640000E9413112C893D894E895F8960E070E0CA
:105650008EE190E09AD903C0C7010E94622267964A
:105660000FB6F894DEBF0FBECDBFDF91CF911F9173
:105670000F91FF90EF90DF90CF90BF90AF909F90F1
:105680008F907F906F905F904F903F900895CF9252
:10569000DF92EF92FF92CF93DF93EC01C12CD12CDC
:1056A0007601C701B6010E943C0DAE01C701B601EB
:1056B000C2D9AE01C701B6010E943C0C80912A0BF1
:1056C00090912B0B009729F0A3D410922B0B1092E2
:1056D0002A0BCA94CD28CE28CF2829F0C12CD12C52
:1056E0007601C394DECF8091310B882359F040E0DE
:1056F00050E060E070E084E190E015D9F82E10925F
:10570000310B01C0F12C8091320B882341F01092B3
:10571000320B81E090E09093CA038093C90380919B
:105720002E0B90912F0B0E94FE2180912E0B9091B9
:105730002F0B0E94F3218F2DDF91CF91FF90EF90DF
:10574000DF90CF900895CF93DF93EC01AC0160E040
:1057500070E0CB010E947915AE0161E070E080E05D
:1057600090E0DF91CF910C94791560E070E0CB016F
:105770000E94E51561E070E080E090E00C94E51592
:10578000CF92DF92EF92FF920F931F93CF93DF930D
:10579000EC016A017B0100E010E098010E946311B6
:1057A00001E010E020E030E0B701A601CE010E9448
:1057B0006311DF91CF911F910F91FF90EF90DF90D8
:1057C000CF9008950E94422168EE73E080E090E05F
:1057D0000E94A61980E090E0089526E040E050E1A4
:1057E0006EE070E084E998E00E94A41C84E998E0EF
:1057F0000E94EE1B892B29F084E998E00E94081C86
:10580000F5CF80E090E00895AF92BF92CF92DF9203
:10581000EF92FF920F931F93CF93DF931F921F92EC
:10582000CDB7DEB77A018901F9011182108284E9CE
:1058300098E069837A830E94EE1B69817A81892BC3
:1058400099F15B01DD24D39485E6C82E80913F0B4E
:10585000811124C084E998E00E94081C85369105D6
:10586000A9F7D0923F0BF501C1925F01F801808149
:105870009181019691838083E9CF84E998E00E9429
:10588000081C8F3FFFEF9F0749F0F50181935F01EF
:10589000F80180819181019691838083F801808154
:1058A00091818E159F0548F380E090E00F900F9056
:1058B000DF91CF911F910F91FF90EF90DF90CF90EC
:1058C000BF90AF9008950F931F93CF93DF93EA019A
:1058D000890184E998E00E94831FF801D183C08385
:1058E00080E090E0DF91CF911F910F910895DC014E
:1058F000A40FB51F240F351FAD01481B590B4217CC
:10590000530738F4ED91E627F0E0ED5AFD4F64912E
:10591000F3CF862F08959A01AB016FEFE8CFCF93B5
:10592000FC01E60FF71FE40FF51FC081F4DF91E0E3
:10593000C81390E0892FCF9108958091410B91E099
:10594000980F9093410B882349F021E030E0309389
:10595000430B2093420B8093410B089578940E944F
:105960003A02F8948091410B81508093410B0C9442
:105970008917FF920F931F93CF93DF931F921F926C
:10598000CDB7DEB7FF24F394FA820E94DF190E949C
:10599000D1200091740710917507F80111821082CF
:1059A00060E070E080E090E00E9492170E94D307D0
:1059B0007894C80182960E94911781E090E00E943D
:1059C0008D171982AE014F5F5F4F61E070E0F80103
:1059D000828193810E9437178981882311F0F80111
:1059E000F6A20E949817F8940E942321F801808162
:1059F0009181892B19F481E096A1911180E08A832D
:105A000078947894FF24F3948A81882371F1198221
:105A1000AE014F5F5F4F61E070E0F80182819381DA
:105A20000E9473178981882311F0F801F6A2F8010A
:105A300080819181892B31F481E096A1911103C07D
:105A400080E001C081E08093400B9091400B81E0A9
:105A5000911180E08A838A81882319F00E9448216D
:105A600002C080E090E08A83CFCF81E090E00E9486
:105A70008F170E94120AF89480E090E00F900F9028
:105A8000DF91CF911F910F91FF9008955058BB2740
:105A9000AA270ED00DC1FED030F003D120F031F492
:105AA0009F3F11F41EF4F3C00EF4E095E7FBE9C04C
:105AB000E92F0FD180F3BA176207730784079507A0
:105AC00018F071F49EF527C10EF4E0950B2EBA2F55
:105AD000A02D0B01B90190010C01CA01A0011124F4
